{
  "_format": "hh3-artifact-1",
  "contractName": "GameItems",
  "sourceName": "contracts/GameItems.sol",
  "abi": [
    {
      "inputs": [],
      "stateMutability": "nonpayable",
      "type": "constructor"
    },
    {
      "inputs": [
        {
          "internalType": "address",
          "name": "sender",
          "type": "address"
        },
        {
          "internalType": "uint256",
          "name": "balance",
          "type": "uint256"
        },
        {
          "internalType": "uint256",
          "name": "needed",
          "type": "uint256"
        },
        {
          "internalType": "uint256",
          "name": "tokenId",
          "type": "uint256"
        }
      ],
      "name": "ERC1155InsufficientBalance",
      "type": "error"
    },
    {
      "inputs": [
        {
          "internalType": "address",
          "name": "approver",
          "type": "address"
        }
      ],
      "name": "ERC1155InvalidApprover",
      "type": "error"
    },
    {
      "inputs": [
        {
          "internalType": "uint256",
          "name": "idsLength",
          "type": "uint256"
        },
        {
          "internalType": "uint256",
          "name": "valuesLength",
          "type": "uint256"
        }
      ],
      "name": "ERC1155InvalidArrayLength",
      "type": "error"
    },
    {
      "inputs": [
        {
          "internalType": "address",
          "name": "operator",
          "type": "address"
        }
      ],
      "name": "ERC1155InvalidOperator",
      "type": "error"
    },
    {
      "inputs": [
        {
          "internalType": "address",
          "name": "receiver",
          "type": "address"
        }
      ],
      "name": "ERC1155InvalidReceiver",
      "type": "error"
    },
    {
      "inputs": [
        {
          "internalType": "address",
          "name": "sender",
          "type": "address"
        }
      ],
      "name": "ERC1155InvalidSender",
      "type": "error"
    },
    {
      "inputs": [
        {
          "internalType": "address",
          "name": "operator",
          "type": "address"
        },
        {
          "internalType": "address",
          "name": "owner",
          "type": "address"
        }
      ],
      "name": "ERC1155MissingApprovalForAll",
      "type": "error"
    },
    {
      "inputs": [
        {
          "internalType": "address",
          "name": "owner",
          "type": "address"
        }
      ],
      "name": "OwnableInvalidOwner",
      "type": "error"
    },
    {
      "inputs": [
        {
          "internalType": "address",
          "name": "account",
          "type": "address"
        }
      ],
      "name": "OwnableUnauthorizedAccount",
      "type": "error"
    },
    {
      "anonymous": false,
      "inputs": [
        {
          "indexed": true,
          "internalType": "address",
          "name": "account",
          "type": "address"
        },
        {
          "indexed": true,
          "internalType": "address",
          "name": "operator",
          "type": "address"
        },
        {
          "indexed": false,
          "internalType": "bool",
          "name": "approved",
          "type": "bool"
        }
      ],
      "name": "ApprovalForAll",
      "type": "event"
    },
    {
      "anonymous": false,
      "inputs": [
        {
          "indexed": true,
          "internalType": "address",
          "name": "user",
          "type": "address"
        },
        {
          "indexed": true,
          "internalType": "uint256",
          "name": "plantId",
          "type": "uint256"
        },
        {
          "indexed": false,
          "internalType": "uint256",
          "name": "boost",
          "type": "uint256"
        },
        {
          "indexed": false,
          "internalType": "uint256",
          "name": "expiryTime",
          "type": "uint256"
        }
      ],
      "name": "BoostActivated",
      "type": "event"
    },
    {
      "anonymous": false,
      "inputs": [
        {
          "indexed": true,
          "internalType": "address",
          "name": "user",
          "type": "address"
        },
        {
          "indexed": true,
          "internalType": "uint256",
          "name": "plantId",
          "type": "uint256"
        },
        {
          "indexed": false,
          "internalType": "uint256",
          "name": "itemId",
          "type": "uint256"
        }
      ],
      "name": "BoostExpired",
      "type": "event"
    },
    {
      "anonymous": false,
      "inputs": [
        {
          "indexed": true,
          "internalType": "address",
          "name": "buyer",
          "type": "address"
        },
        {
          "indexed": true,
          "internalType": "uint256",
          "name": "id",
          "type": "uint256"
        },
        {
          "indexed": false,
          "internalType": "uint256",
          "name": "amount",
          "type": "uint256"
        }
      ],
      "name": "ItemPurchased",
      "type": "event"
    },
    {
      "anonymous": false,
      "inputs": [
        {
          "indexed": true,
          "internalType": "address",
          "name": "player",
          "type": "address"
        },
        {
          "indexed": true,
          "internalType": "uint256",
          "name": "plantId",
          "type": "uint256"
        },
        {
          "indexed": true,
          "internalType": "uint256",
          "name": "itemId",
          "type": "uint256"
        },
        {
          "indexed": false,
          "internalType": "uint256",
          "name": "timestamp",
          "type": "uint256"
        }
      ],
      "name": "ItemUsed",
      "type": "event"
    },
    {
      "anonymous": false,
      "inputs": [
        {
          "indexed": true,
          "internalType": "address",
          "name": "previousOwner",
          "type": "address"
        },
        {
          "indexed": true,
          "internalType": "address",
          "name": "newOwner",
          "type": "address"
        }
      ],
      "name": "OwnershipTransferred",
      "type": "event"
    },
    {
      "anonymous": false,
      "inputs": [
        {
          "indexed": true,
          "internalType": "address",
          "name": "operator",
          "type": "address"
        },
        {
          "indexed": true,
          "internalType": "address",
          "name": "from",
          "type": "address"
        },
        {
          "indexed": true,
          "internalType": "address",
          "name": "to",
          "type": "address"
        },
        {
          "indexed": false,
          "internalType": "uint256[]",
          "name": "ids",
          "type": "uint256[]"
        },
        {
          "indexed": false,
          "internalType": "uint256[]",
          "name": "values",
          "type": "uint256[]"
        }
      ],
      "name": "TransferBatch",
      "type": "event"
    },
    {
      "anonymous": false,
      "inputs": [
        {
          "indexed": true,
          "internalType": "address",
          "name": "operator",
          "type": "address"
        },
        {
          "indexed": true,
          "internalType": "address",
          "name": "from",
          "type": "address"
        },
        {
          "indexed": true,
          "internalType": "address",
          "name": "to",
          "type": "address"
        },
        {
          "indexed": false,
          "internalType": "uint256",
          "name": "id",
          "type": "uint256"
        },
        {
          "indexed": false,
          "internalType": "uint256",
          "name": "value",
          "type": "uint256"
        }
      ],
      "name": "TransferSingle",
      "type": "event"
    },
    {
      "anonymous": false,
      "inputs": [
        {
          "indexed": false,
          "internalType": "string",
          "name": "value",
          "type": "string"
        },
        {
          "indexed": true,
          "internalType": "uint256",
          "name": "id",
          "type": "uint256"
        }
      ],
      "name": "URI",
      "type": "event"
    },
    {
      "inputs": [],
      "name": "FERTILIZER",
      "outputs": [
        {
          "internalType": "uint256",
          "name": "",
          "type": "uint256"
        }
      ],
      "stateMutability": "view",
      "type": "function"
    },
    {
      "inputs": [],
      "name": "GOLDEN_SHOVEL",
      "outputs": [
        {
          "internalType": "uint256",
          "name": "",
          "type": "uint256"
        }
      ],
      "stateMutability": "view",
      "type": "function"
    },
    {
      "inputs": [],
      "name": "GROWTH_BOOST_1H",
      "outputs": [
        {
          "internalType": "uint256",
          "name": "",
          "type": "uint256"
        }
      ],
      "stateMutability": "view",
      "type": "function"
    },
    {
      "inputs": [],
      "name": "GROWTH_BOOST_24H",
      "outputs": [
        {
          "internalType": "uint256",
          "name": "",
          "type": "uint256"
        }
      ],
      "stateMutability": "view",
      "type": "function"
    },
    {
      "inputs": [],
      "name": "MYSTICAL_FERTILIZER",
      "outputs": [
        {
          "internalType": "uint256",
          "name": "",
          "type": "uint256"
        }
      ],
      "stateMutability": "view",
      "type": "function"
    },
    {
      "inputs": [],
      "name": "PESTICIDE",
      "outputs": [
        {
          "internalType": "uint256",
          "name": "",
          "type": "uint256"
        }
      ],
      "stateMutability": "view",
      "type": "function"
    },
    {
      "inputs": [],
      "name": "RAINBOW_WATERING_CAN",
      "outputs": [
        {
          "internalType": "uint256",
          "name": "",
          "type": "uint256"
        }
      ],
      "stateMutability": "view",
      "type": "function"
    },
    {
      "inputs": [],
      "name": "RARE_SEED_BOOST",
      "outputs": [
        {
          "internalType": "uint256",
          "name": "",
          "type": "uint256"
        }
      ],
      "stateMutability": "view",
      "type": "function"
    },
    {
      "inputs": [],
      "name": "SEED",
      "outputs": [
        {
          "internalType": "uint256",
          "name": "",
          "type": "uint256"
        }
      ],
      "stateMutability": "view",
      "type": "function"
    },
    {
      "inputs": [],
      "name": "WATER_CAN",
      "outputs": [
        {
          "internalType": "uint256",
          "name": "",
          "type": "uint256"
        }
      ],
      "stateMutability": "view",
      "type": "function"
    },
    {
      "inputs": [
        {
          "internalType": "address",
          "name": "",
          "type": "address"
        },
        {
          "internalType": "uint256",
          "name": "",
          "type": "uint256"
        },
        {
          "internalType": "uint256",
          "name": "",
          "type": "uint256"
        }
      ],
      "name": "activeBoosts",
      "outputs": [
        {
          "internalType": "uint256",
          "name": "itemId",
          "type": "uint256"
        },
        {
          "internalType": "uint256",
          "name": "expiryTime",
          "type": "uint256"
        },
        {
          "internalType": "uint256",
          "name": "multiplier",
          "type": "uint256"
        }
      ],
      "stateMutability": "view",
      "type": "function"
    },
    {
      "inputs": [
        {
          "internalType": "address",
          "name": "to",
          "type": "address"
        },
        {
          "internalType": "uint256",
          "name": "id",
          "type": "uint256"
        },
        {
          "internalType": "uint256",
          "name": "amount",
          "type": "uint256"
        }
      ],
      "name": "adminMint",
      "outputs": [],
      "stateMutability": "nonpayable",
      "type": "function"
    },
    {
      "inputs": [
        {
          "internalType": "address",
          "name": "account",
          "type": "address"
        },
        {
          "internalType": "uint256",
          "name": "id",
          "type": "uint256"
        }
      ],
      "name": "balanceOf",
      "outputs": [
        {
          "internalType": "uint256",
          "name": "",
          "type": "uint256"
        }
      ],
      "stateMutability": "view",
      "type": "function"
    },
    {
      "inputs": [
        {
          "internalType": "address[]",
          "name": "accounts",
          "type": "address[]"
        },
        {
          "internalType": "uint256[]",
          "name": "ids",
          "type": "uint256[]"
        }
      ],
      "name": "balanceOfBatch",
      "outputs": [
        {
          "internalType": "uint256[]",
          "name": "",
          "type": "uint256[]"
        }
      ],
      "stateMutability": "view",
      "type": "function"
    },
    {
      "inputs": [
        {
          "internalType": "uint256[]",
          "name": "ids",
          "type": "uint256[]"
        },
        {
          "internalType": "uint256[]",
          "name": "amounts",
          "type": "uint256[]"
        }
      ],
      "name": "buyBatch",
      "outputs": [],
      "stateMutability": "payable",
      "type": "function"
    },
    {
      "inputs": [
        {
          "internalType": "uint256",
          "name": "id",
          "type": "uint256"
        },
        {
          "internalType": "uint256",
          "name": "amount",
          "type": "uint256"
        }
      ],
      "name": "buyItem",
      "outputs": [],
      "stateMutability": "payable",
      "type": "function"
    },
    {
      "inputs": [
        {
          "internalType": "address",
          "name": "user",
          "type": "address"
        },
        {
          "internalType": "uint256",
          "name": "plantId",
          "type": "uint256"
        }
      ],
      "name": "cleanExpiredBoosts",
      "outputs": [],
      "stateMutability": "nonpayable",
      "type": "function"
    },
    {
      "inputs": [
        {
          "internalType": "address",
          "name": "user",
          "type": "address"
        },
        {
          "internalType": "uint256",
          "name": "plantId",
          "type": "uint256"
        }
      ],
      "name": "getActiveBoosts",
      "outputs": [
        {
          "components": [
            {
              "internalType": "uint256",
              "name": "itemId",
              "type": "uint256"
            },
            {
              "internalType": "uint256",
              "name": "expiryTime",
              "type": "uint256"
            },
            {
              "internalType": "uint256",
              "name": "multiplier",
              "type": "uint256"
            }
          ],
          "internalType": "struct GameItems.ActiveBoost[]",
          "name": "",
          "type": "tuple[]"
        }
      ],
      "stateMutability": "view",
      "type": "function"
    },
    {
      "inputs": [
        {
          "internalType": "address",
          "name": "user",
          "type": "address"
        },
        {
          "internalType": "uint256",
          "name": "plantId",
          "type": "uint256"
        }
      ],
      "name": "getEffectiveGrowthRate",
      "outputs": [
        {
          "internalType": "uint256",
          "name": "",
          "type": "uint256"
        }
      ],
      "stateMutability": "view",
      "type": "function"
    },
    {
      "inputs": [
        {
          "internalType": "uint256",
          "name": "id",
          "type": "uint256"
        }
      ],
      "name": "getItemInfo",
      "outputs": [
        {
          "internalType": "string",
          "name": "name",
          "type": "string"
        },
        {
          "internalType": "uint256",
          "name": "price",
          "type": "uint256"
        },
        {
          "internalType": "uint256",
          "name": "supply",
          "type": "uint256"
        },
        {
          "internalType": "uint256",
          "name": "maxSupp",
          "type": "uint256"
        }
      ],
      "stateMutability": "view",
      "type": "function"
    },
    {
      "inputs": [
        {
          "internalType": "uint256",
          "name": "count",
          "type": "uint256"
        }
      ],
      "name": "getMostUsedItems",
      "outputs": [
        {
          "internalType": "uint256[]",
          "name": "itemIds",
          "type": "uint256[]"
        },
        {
          "internalType": "uint256[]",
          "name": "usageCounts",
          "type": "uint256[]"
        }
      ],
      "stateMutability": "view",
      "type": "function"
    },
    {
      "inputs": [
        {
          "internalType": "address",
          "name": "account",
          "type": "address"
        },
        {
          "internalType": "address",
          "name": "operator",
          "type": "address"
        }
      ],
      "name": "isApprovedForAll",
      "outputs": [
        {
          "internalType": "bool",
          "name": "",
          "type": "bool"
        }
      ],
      "stateMutability": "view",
      "type": "function"
    },
    {
      "inputs": [
        {
          "internalType": "uint256",
          "name": "",
          "type": "uint256"
        }
      ],
      "name": "itemEffects",
      "outputs": [
        {
          "internalType": "uint256",
          "name": "growthMultiplier",
          "type": "uint256"
        },
        {
          "internalType": "uint256",
          "name": "rarityBoost",
          "type": "uint256"
        },
        {
          "internalType": "uint256",
          "name": "durationSeconds",
          "type": "uint256"
        },
        {
          "internalType": "bool",
          "name": "isConsumable",
          "type": "bool"
        }
      ],
      "stateMutability": "view",
      "type": "function"
    },
    {
      "inputs": [
        {
          "internalType": "uint256",
          "name": "",
          "type": "uint256"
        }
      ],
      "name": "itemPrice",
      "outputs": [
        {
          "internalType": "uint256",
          "name": "",
          "type": "uint256"
        }
      ],
      "stateMutability": "view",
      "type": "function"
    },
    {
      "inputs": [
        {
          "internalType": "uint256",
          "name": "",
          "type": "uint256"
        }
      ],
      "name": "itemUsageCount",
      "outputs": [
        {
          "internalType": "uint256",
          "name": "",
          "type": "uint256"
        }
      ],
      "stateMutability": "view",
      "type": "function"
    },
    {
      "inputs": [
        {
          "internalType": "uint256",
          "name": "",
          "type": "uint256"
        }
      ],
      "name": "maxSupply",
      "outputs": [
        {
          "internalType": "uint256",
          "name": "",
          "type": "uint256"
        }
      ],
      "stateMutability": "view",
      "type": "function"
    },
    {
      "inputs": [],
      "name": "owner",
      "outputs": [
        {
          "internalType": "address",
          "name": "",
          "type": "address"
        }
      ],
      "stateMutability": "view",
      "type": "function"
    },
    {
      "inputs": [],
      "name": "plantNFT",
      "outputs": [
        {
          "internalType": "contract IPlantNFT",
          "name": "",
          "type": "address"
        }
      ],
      "stateMutability": "view",
      "type": "function"
    },
    {
      "inputs": [],
      "name": "plantNFTAddress",
      "outputs": [
        {
          "internalType": "address",
          "name": "",
          "type": "address"
        }
      ],
      "stateMutability": "view",
      "type": "function"
    },
    {
      "inputs": [
        {
          "internalType": "address",
          "name": "",
          "type": "address"
        },
        {
          "internalType": "uint256",
          "name": "",
          "type": "uint256"
        }
      ],
      "name": "playerItemUsage",
      "outputs": [
        {
          "internalType": "uint256",
          "name": "",
          "type": "uint256"
        }
      ],
      "stateMutability": "view",
      "type": "function"
    },
    {
      "inputs": [],
      "name": "renounceOwnership",
      "outputs": [],
      "stateMutability": "nonpayable",
      "type": "function"
    },
    {
      "inputs": [
        {
          "internalType": "address",
          "name": "from",
          "type": "address"
        },
        {
          "internalType": "address",
          "name": "to",
          "type": "address"
        },
        {
          "internalType": "uint256[]",
          "name": "ids",
          "type": "uint256[]"
        },
        {
          "internalType": "uint256[]",
          "name": "values",
          "type": "uint256[]"
        },
        {
          "internalType": "bytes",
          "name": "data",
          "type": "bytes"
        }
      ],
      "name": "safeBatchTransferFrom",
      "outputs": [],
      "stateMutability": "nonpayable",
      "type": "function"
    },
    {
      "inputs": [
        {
          "internalType": "address",
          "name": "from",
          "type": "address"
        },
        {
          "internalType": "address",
          "name": "to",
          "type": "address"
        },
        {
          "internalType": "uint256",
          "name": "id",
          "type": "uint256"
        },
        {
          "internalType": "uint256",
          "name": "value",
          "type": "uint256"
        },
        {
          "internalType": "bytes",
          "name": "data",
          "type": "bytes"
        }
      ],
      "name": "safeTransferFrom",
      "outputs": [],
      "stateMutability": "nonpayable",
      "type": "function"
    },
    {
      "inputs": [
        {
          "internalType": "address",
          "name": "operator",
          "type": "address"
        },
        {
          "internalType": "bool",
          "name": "approved",
          "type": "bool"
        }
      ],
      "name": "setApprovalForAll",
      "outputs": [],
      "stateMutability": "nonpayable",
      "type": "function"
    },
    {
      "inputs": [
        {
          "internalType": "uint256",
          "name": "itemId",
          "type": "uint256"
        },
        {
          "internalType": "uint256",
          "name": "growthMultiplier",
          "type": "uint256"
        },
        {
          "internalType": "uint256",
          "name": "rarityBoost",
          "type": "uint256"
        },
        {
          "internalType": "uint256",
          "name": "durationSeconds",
          "type": "uint256"
        },
        {
          "internalType": "bool",
          "name": "isConsumable",
          "type": "bool"
        }
      ],
      "name": "setItemEffect",
      "outputs": [],
      "stateMutability": "nonpayable",
      "type": "function"
    },
    {
      "inputs": [
        {
          "internalType": "uint256",
          "name": "id",
          "type": "uint256"
        },
        {
          "internalType": "uint256",
          "name": "price",
          "type": "uint256"
        }
      ],
      "name": "setItemPrice",
      "outputs": [],
      "stateMutability": "nonpayable",
      "type": "function"
    },
    {
      "inputs": [
        {
          "internalType": "uint256",
          "name": "id",
          "type": "uint256"
        },
        {
          "internalType": "uint256",
          "name": "maxSupp",
          "type": "uint256"
        }
      ],
      "name": "setMaxSupply",
      "outputs": [],
      "stateMutability": "nonpayable",
      "type": "function"
    },
    {
      "inputs": [
        {
          "internalType": "address",
          "name": "_plantNFTAddress",
          "type": "address"
        }
      ],
      "name": "setPlantNFT",
      "outputs": [],
      "stateMutability": "nonpayable",
      "type": "function"
    },
    {
      "inputs": [
        {
          "internalType": "bytes4",
          "name": "interfaceId",
          "type": "bytes4"
        }
      ],
      "name": "supportsInterface",
      "outputs": [
        {
          "internalType": "bool",
          "name": "",
          "type": "bool"
        }
      ],
      "stateMutability": "view",
      "type": "function"
    },
    {
      "inputs": [
        {
          "internalType": "uint256",
          "name": "",
          "type": "uint256"
        }
      ],
      "name": "totalSupply",
      "outputs": [
        {
          "internalType": "uint256",
          "name": "",
          "type": "uint256"
        }
      ],
      "stateMutability": "view",
      "type": "function"
    },
    {
      "inputs": [
        {
          "internalType": "address",
          "name": "newOwner",
          "type": "address"
        }
      ],
      "name": "transferOwnership",
      "outputs": [],
      "stateMutability": "nonpayable",
      "type": "function"
    },
    {
      "inputs": [
        {
          "internalType": "uint256",
          "name": "",
          "type": "uint256"
        }
      ],
      "name": "uri",
      "outputs": [
        {
          "internalType": "string",
          "name": "",
          "type": "string"
        }
      ],
      "stateMutability": "view",
      "type": "function"
    },
    {
      "inputs": [
        {
          "internalType": "uint256",
          "name": "plantId",
          "type": "uint256"
        }
      ],
      "name": "useFertilizer",
      "outputs": [],
      "stateMutability": "nonpayable",
      "type": "function"
    },
    {
      "inputs": [
        {
          "internalType": "uint256",
          "name": "plantId",
          "type": "uint256"
        },
        {
          "internalType": "uint256",
          "name": "itemId",
          "type": "uint256"
        }
      ],
      "name": "useItem",
      "outputs": [],
      "stateMutability": "nonpayable",
      "type": "function"
    },
    {
      "inputs": [
        {
          "internalType": "uint256",
          "name": "plantId",
          "type": "uint256"
        },
        {
          "internalType": "uint256[]",
          "name": "itemIds",
          "type": "uint256[]"
        },
        {
          "internalType": "uint256[]",
          "name": "amounts",
          "type": "uint256[]"
        }
      ],
      "name": "useItemBatch",
      "outputs": [],
      "stateMutability": "nonpayable",
      "type": "function"
    },
    {
      "inputs": [],
      "name": "withdraw",
      "outputs": [],
      "stateMutability": "nonpayable",
      "type": "function"
    }
  ],
  "bytecode": "0x608060405234801561000f575f5ffd5b50336040518060600160405280602d8152602001614448602d913961003381610aee565b506001600160a01b03811661006157604051631e4fbdf760e01b81525f600482015260240160405180910390fd5b61006a81610afe565b506104d5655af3107a40007f54cdd369e4e8a8515e52ca72ec816c2101831ad1f18bf44102ed171459c9b4f85565b5e620f480007f3e5fec24aa4dc4e5aee2e025e51e1392c72a2500577559fae9665c6d52bd6a31819055660110d9316ec0007f8819ef417987f8ae7a81f42cdfb18815282fe989326fbff903d13cf0e03ace29557f75f96ab15d697e93042dc45b5c896c4b27e89bb6eaf39475c5c371cb2513f7d255662386f26fc100007f4da38fc8e544afc56a4c2a17752b8ddb67d8e23ac4583c9029d2e2d1dbe6c9885566470de4df8200007f85291c2e7881182c13e19eca9b58927ebfdc2c5d04882018eeb33d8241d357115566b1a2bc2ec500007f0b94fa1b86997cc1f1148bfbe25b674e8cefc7cc6f976aa8d7c7966bd4cca3475566038d7ea4c680007f098d468efb4f874d617491296c759dc9ae46efb517fe36bcf30699ad3f714c0f556611c37937e080007feda6feebfb4ffb7de2d0dc45a13b92dc953c2ed6ee96fa7fe8179e7c4266747f55660aa87bee5380007f7d35cc2b0520994422695eb24e3bf4f74e9cba2704cae72ecd9ec54409a56afb556103e87f586689db7536874b78a6eac0f58556a56a106985743f7c16a699b27bb02f88bd556101f47fcb250a1a60f48f70f08c912424f39071fd9a8b7099a72dffd251fce0294f374981905560647faba08fc86a199da17c4b45fa0fb586714474d27e5e1f0220658b6275561b2e18819055604080516080808201835260c882525f602080840182815284860183815260016060808801828152828752600980875298515f5160206145755f395f51905f525593515f5160206143685f395f51905f525591515f5160206144285f395f51905f525591515f5160206142e85f395f51905f52805460ff199081169215159290921790558751808701895261012c8152808501868152610e10828b019081528285018681526014808a528b895293515f5160206144755f395f51905f525591515f5160206145155f395f51905f5255515f5160206144085f395f51905f5255515f5160206143285f395f51905f528054841691151591909117905588518088018a5260fa815280860187815262015180828c0190815282860187815260158a528b895292515f5160206143e85f395f51905f525590515f5160206143885f395f51905f5255515f5160206143085f395f51905f5255515f5160206144d55f395f51905f528054841691151591909117905588518088018a52998a528985019081528989018681528a8401858152601688528987529a515f5160206143a85f395f51905f525590515f5160206144f55f395f51905f5255515f5160206144b55f395f51905f525597515f5160206144955f395f51905f5280548a1691151591909117905586519485018752978452600a848301908152958401838152978401908152600c90925292909252515f5160206143485f395f51905f525590515f5160206145555f395f51905f525591515f5160206143c85f395f51905f525590515f5160206145355f395f51905f528054909216901515179055565b610ae9604080516080808201835260c88083525f602080850182815285870183815260016060808901828152828752600980875299515f5160206145755f395f51905f525593515f5160206143685f395f51905f525591515f5160206144285f395f51905f525591515f5160206142e85f395f51905f52805460ff1990811692151592909217905588518088018a5261012c808252818601878152610e10838d019081528386018781526014808b528d8a5294515f5160206144755f395f51905f525591515f5160206145155f395f51905f5255515f5160206144085f395f51905f5255515f5160206143285f395f51905f52805485169115159190911790558a51808a018c5260fa815280870188815262015180828e0190815282870188815260158b528d8a5292515f5160206143e85f395f51905f525590515f5160206143885f395f51905f5255515f5160206143085f395f51905f5255515f5160206144d55f395f51905f52805485169115159190911790558a51808a018c5260968152808701888152818d018981528287018a815260028b528d8a5292517f6cde3cea4b3a3fb2488b2808bae7556f4a405e50f65e1794383bc026131b13c35590517f6cde3cea4b3a3fb2488b2808bae7556f4a405e50f65e1794383bc026131b13c455517f6cde3cea4b3a3fb2488b2808bae7556f4a405e50f65e1794383bc026131b13c555517f6cde3cea4b3a3fb2488b2808bae7556f4a405e50f65e1794383bc026131b13c6805485169115159190911790558a51808a018c52607881526005818801908152818d0189815282870188815260038b528d8a5292517fc575c31fea594a6eb97c8e9d3f9caee4c16218c6ef37e923234c0fe9014a61e75590517fc575c31fea594a6eb97c8e9d3f9caee4c16218c6ef37e923234c0fe9014a61e855517fc575c31fea594a6eb97c8e9d3f9caee4c16218c6ef37e923234c0fe9014a61e955517fc575c31fea594a6eb97c8e9d3f9caee4c16218c6ef37e923234c0fe9014a61ea805485169115159190911790558a51808a018c52978852878601878152888c01888152898601898152600a808b528d8a529a517f502e20e4e219e0c509d693958f17384c185f07a810a5d31c46c2be981e979c255591517f502e20e4e219e0c509d693958f17384c185f07a810a5d31c46c2be981e979c2655517f502e20e4e219e0c509d693958f17384c185f07a810a5d31c46c2be981e979c2755517f502e20e4e219e0c509d693958f17384c185f07a810a5d31c46c2be981e979c28805485169115159190911790558a51808a018c52908152808601878152818c01888152828601898152600b8a528c895292517f0d9cf2cd531699eed8dd34e40ff2884a14a698c4898184fba85194e6f6772d245590517f0d9cf2cd531699eed8dd34e40ff2884a14a698c4898184fba85194e6f6772d2555517f0d9cf2cd531699eed8dd34e40ff2884a14a698c4898184fba85194e6f6772d2655517f0d9cf2cd531699eed8dd34e40ff2884a14a698c4898184fba85194e6f6772d278054841691151591909117905589518089018b526101f48152808601978852808b01878152818501868152600c89528b885291515f5160206143485f395f51905f525597515f5160206145555f395f51905f525596515f5160206143c85f395f51905f525595515f5160206145355f395f51905f528054831691151591909117905588518088018a526064808252818601978852818b01878152828501868152601689528b885292515f5160206143a85f395f51905f525597515f5160206144f55f395f51905f525596515f5160206144b55f395f51905f5255515f5160206144955f395f51905f52805483169115159190911790558851968701895294865285830184815297860184815290860191825292805294905291517fec8156718a8372b1db44bb411437d0870f3e3790d4a08526d024ce1b0b668f6b5592517fec8156718a8372b1db44bb411437d0870f3e3790d4a08526d024ce1b0b668f6c55517fec8156718a8372b1db44bb411437d0870f3e3790d4a08526d024ce1b0b668f6d55517fec8156718a8372b1db44bb411437d0870f3e3790d4a08526d024ce1b0b668f6e8054909216901515179055565b610ca1565b6002610afa8282610be7565b5050565b600380546001600160a01b038381166001600160a01b0319831681179093556040519116919082907f8be0079c531659141344cd1fd0a4f28419497f9722a3daafe3b4186f6b6457e0905f90a35050565b634e487b7160e01b5f52604160045260245ffd5b600181811c90821680610b7757607f821691505b602082108103610b9557634e487b7160e01b5f52602260045260245ffd5b50919050565b601f821115610be257805f5260205f20601f840160051c81016020851015610bc05750805b601f840160051c820191505b81811015610bdf575f8155600101610bcc565b50505b505050565b81516001600160401b03811115610c0057610c00610b4f565b610c1481610c0e8454610b63565b84610b9b565b6020601f821160018114610c46575f8315610c2f5750848201515b5f19600385901b1c1916600184901b178455610bdf565b5f84815260208120601f198516915b82811015610c755787850151825560209485019460019092019101610c55565b5084821015610c9257868401515f19600387901b60f8161c191681555b50505050600190811b01905550565b61363a80610cae5f395ff3fe608060405260043610610273575f3560e01c8063869f75941161014a578063b9aaf498116100be578063dd0fc7f511610078578063dd0fc7f5146107dc578063de7fe3e7146107f0578063e985e9c51461081f578063f242432a1461083e578063f2fde38b1461085d578063f63bde991461087c575f5ffd5b8063b9aaf49814610709578063bd85b03914610728578063c7c7934114610753578063d03add2914610772578063d51e013814610791578063db6f3106146107b0575f5ffd5b8063a22cb4651161010f578063a22cb46514610659578063a65f1c0014610678578063abf084a314610697578063ad0ce329146106b6578063adcb005c146106ca578063b580344d146106f5575f5ffd5b8063869f7594146105915780638da5cb5b146105bc57806395061acf146105ed5780639979c0091461060c578063a16647e11461061f575f5ffd5b806337da577c116101ec578063657ff8dc116101a6578063657ff8dc1461049957806367f4a103146104c6578063715018a6146104da5780637344d12c146104ee57806379bea7ee146105535780637ead6eee14610566575f5ffd5b806337da577c146103d15780633ccfd60b146103f05780634081b580146104045780634229c35e1461043a57806347e0507a146104595780634e1273f41461046d575f5ffd5b80630e89341c1161023d5780630e89341c146103215780630edc47371461034d5780631d6ae4d3146103605780632686bf761461037f5780632eb2c2d61461039e578063304f1941146103bd575f5ffd5b80624a84cb14610277578062fdd58e14610298578063011d6d7e146102ca57806301ffc9a7146102de5780630c1386ff1461030d575b5f5ffd5b348015610282575f5ffd5b50610296610291366004612d58565b610890565b005b3480156102a3575f5ffd5b506102b76102b2366004612d8a565b6108d9565b6040519081526020015b60405180910390f35b3480156102d5575f5ffd5b506102b7600c81565b3480156102e9575f5ffd5b506102fd6102f8366004612dc9565b610900565b60405190151581526020016102c1565b348015610318575f5ffd5b506102b7601681565b34801561032c575f5ffd5b5061034061033b366004612deb565b61094f565b6040516102c19190612e30565b348015610358575f5ffd5b506102b75f81565b34801561036b575f5ffd5b5061029661037a366004612e56565b6109e1565b34801561038a575f5ffd5b506102b7610399366004612d8a565b610a43565b3480156103a9575f5ffd5b506102966103b8366004612fd6565b610b51565b3480156103c8575f5ffd5b506102b7601581565b3480156103dc575f5ffd5b506102966103eb366004613086565b610bbd565b3480156103fb575f5ffd5b50610296610bd6565b34801561040f575f5ffd5b506102b761041e366004612d8a565b600c60209081525f928352604080842090915290825290205481565b348015610445575f5ffd5b50610296610454366004613086565b610c17565b348015610464575f5ffd5b506102b7600a81565b348015610478575f5ffd5b5061048c6104873660046130a6565b610c30565b6040516102c191906131a3565b3480156104a4575f5ffd5b506104b86104b3366004612deb565b610cfa565b6040516102c19291906131b5565b3480156104d1575f5ffd5b506102b7600181565b3480156104e5575f5ffd5b5061029661116b565b3480156104f9575f5ffd5b50610531610508366004612deb565b60096020525f908152604090208054600182015460028301546003909301549192909160ff1684565b60408051948552602085019390935291830152151560608201526080016102c1565b6102966105613660046131e2565b61117e565b348015610571575f5ffd5b506102b7610580366004612deb565b600b6020525f908152604090205481565b34801561059c575f5ffd5b506102b76105ab366004612deb565b60086020525f908152604090205481565b3480156105c7575f5ffd5b506003546001600160a01b03165b6040516001600160a01b0390911681526020016102c1565b3480156105f8575f5ffd5b50610296610607366004613086565b611410565b61029661061a366004613086565b611787565b34801561062a575f5ffd5b5061063e610639366004612d58565b611910565b604080519384526020840192909252908201526060016102c1565b348015610664575f5ffd5b5061029661067336600461322f565b61195a565b348015610683575f5ffd5b50610296610692366004613262565b611969565b3480156106a2575f5ffd5b506005546105d5906001600160a01b031681565b3480156106c1575f5ffd5b506102b7600281565b3480156106d5575f5ffd5b506102b76106e4366004612deb565b60066020525f908152604090205481565b348015610700575f5ffd5b506102b7601481565b348015610714575f5ffd5b50610296610723366004612deb565b6119e5565b348015610733575f5ffd5b506102b7610742366004612deb565b60076020525f908152604090205481565b34801561075e575f5ffd5b5061029661076d366004612d8a565b611c04565b34801561077d575f5ffd5b5061029661078c36600461327d565b611d76565b34801561079c575f5ffd5b506004546105d5906001600160a01b031681565b3480156107bb575f5ffd5b506107cf6107ca366004612d8a565b6120ff565b6040516102c191906132e8565b3480156107e7575f5ffd5b506102b7600381565b3480156107fb575f5ffd5b5061080f61080a366004612deb565b6122d2565b6040516102c19493929190613346565b34801561082a575f5ffd5b506102fd610839366004613374565b61230e565b348015610849575f5ffd5b506102966108583660046133ab565b61233b565b348015610868575f5ffd5b50610296610877366004613262565b61239a565b348015610887575f5ffd5b506102b7600b81565b6108986123d4565b6108b283838360405180602001604052805f815250612401565b5f82815260076020526040812080548392906108cf908490613416565b9091555050505050565b5f818152602081815260408083206001600160a01b03861684529091529020545b92915050565b5f6001600160e01b03198216636cdb3d1360e11b148061093057506001600160e01b031982166303a24d0760e21b145b806108fa57506301ffc9a760e01b6001600160e01b03198316146108fa565b60606002805461095e90613429565b80601f016020809104026020016040519081016040528092919081815260200182805461098a90613429565b80156109d55780601f106109ac576101008083540402835291602001916109d5565b820191905f5260205f20905b8154815290600101906020018083116109b857829003601f168201915b50505050509050919050565b6109e96123d4565b604080516080810182529485526020808601948552858201938452911515606086019081525f9687526009909252909420925183559051600183015551600282015590516003909101805460ff1916911515919091179055565b6001600160a01b0382165f908152600a60209081526040808320848452825280832080548251818502810185019093528083526064938593929190849084015b82821015610ad0578382905f5260205f2090600302016040518060600160405290815f82015481526020016001820154815260200160028201548152505081526020019060010190610a83565b509293505f925050505b8151811015610b475742828281518110610af657610af6613461565b6020026020010151602001511115610b3f576064828281518110610b1c57610b1c613461565b602002602001015160400151610b329190613475565b610b3c9084613416565b92505b600101610ada565b5090949350505050565b336001600160a01b0386168114801590610b725750610b70868261230e565b155b15610ba85760405163711bec9160e11b81526001600160a01b038083166004830152871660248201526044015b60405180910390fd5b610bb5868686868661245c565b505050505050565b610bc56123d4565b5f9182526008602052604090912055565b610bde6123d4565b6003546040516001600160a01b03909116904780156108fc02915f818181858888f19350505050158015610c14573d5f5f3e3d5ffd5b50565b610c1f6123d4565b5f9182526006602052604090912055565b60608151835114610c615781518351604051635b05999160e01b815260048101929092526024820152604401610b9f565b5f83516001600160401b03811115610c7b57610c7b612e9b565b604051908082528060200260200182016040528015610ca4578160200160208202803683370190505b5090505f5b8451811015610cf257602080820286010151610ccd906020808402870101516108d9565b828281518110610cdf57610cdf613461565b6020908102919091010152600101610ca9565b509392505050565b60408051600d8082526101c0820190925260609182915f91602082016101a080368337505060408051600d8082526101c082019092529293505f929150602082016101a0803683370190505090505f825f81518110610d5b57610d5b613461565b602002602001018181525050600182600181518110610d7c57610d7c613461565b602002602001018181525050600282600281518110610d9d57610d9d613461565b602002602001018181525050600382600381518110610dbe57610dbe613461565b602002602001018181525050600a82600481518110610ddf57610ddf613461565b602002602001018181525050600b82600581518110610e0057610e00613461565b602002602001018181525050600c82600681518110610e2157610e21613461565b602002602001018181525050601482600781518110610e4257610e42613461565b602002602001018181525050601582600881518110610e6357610e63613461565b602002602001018181525050601682600981518110610e8457610e84613461565b60209081029190910101525f5b600a811015610eea57600b5f848381518110610eaf57610eaf613461565b602002602001015181526020019081526020015f2054828281518110610ed757610ed7613461565b6020908102919091010152600101610e91565b505f5b600a811015611044575f610f02826001613416565b90505b600a81101561103b57828281518110610f2057610f20613461565b6020026020010151838281518110610f3a57610f3a613461565b60200260200101511115611033575f838381518110610f5b57610f5b613461565b60200260200101519050838281518110610f7757610f77613461565b6020026020010151848481518110610f9157610f91613461565b60200260200101818152505080848381518110610fb057610fb0613461565b6020026020010181815250505f858481518110610fcf57610fcf613461565b60200260200101519050858381518110610feb57610feb613461565b602002602001015186858151811061100557611005613461565b6020026020010181815250508086848151811061102457611024613461565b60200260200101818152505050505b600101610f05565b50600101610eed565b505f600a86116110545785611057565b600a5b9050806001600160401b0381111561107157611071612e9b565b60405190808252806020026020018201604052801561109a578160200160208202803683370190505b509450806001600160401b038111156110b5576110b5612e9b565b6040519080825280602002602001820160405280156110de578160200160208202803683370190505b5093505f5b81811015611162578381815181106110fd576110fd613461565b602002602001015186828151811061111757611117613461565b60200260200101818152505082818151811061113557611135613461565b602002602001015185828151811061114f5761114f613461565b60209081029190910101526001016110e3565b50505050915091565b6111736123d4565b61117c5f6124c1565b565b80518251146111c15760405162461bcd60e51b815260206004820152600f60248201526e098cadccee8d040dad2e6dac2e8c6d608b1b6044820152606401610b9f565b5f805b835181101561136c578281815181106111df576111df613461565b602002602001015160065f8684815181106111fc576111fc613461565b602002602001015181526020019081526020015f205461121c9190613488565b6112269083613416565b91505f60085f86848151811061123e5761123e613461565b602002602001015181526020019081526020015f2054111561130d5760085f85838151811061126f5761126f613461565b602002602001015181526020019081526020015f205483828151811061129757611297613461565b602002602001015160075f8785815181106112b4576112b4613461565b602002602001015181526020019081526020015f20546112d49190613416565b111561130d5760405162461bcd60e51b815260206004820152600860248201526714dbdb19081bdd5d60c21b6044820152606401610b9f565b82818151811061131f5761131f613461565b602002602001015160075f86848151811061133c5761133c613461565b602002602001015181526020019081526020015f205f82825461135f9190613416565b90915550506001016111c4565b50803410156113b45760405162461bcd60e51b8152602060048201526014602482015273125b9cdd59999a58da595b9d081c185e5b595b9d60621b6044820152606401610b9f565b6113ce33848460405180602001604052805f815250612512565b8034111561140b57336108fc6113e48334613475565b6040518115909202915f818181858888f19350505050158015611409573d5f5f3e3d5ffd5b505b505050565b6004546001600160a01b03166114385760405162461bcd60e51b8152600401610b9f9061349f565b6005546040516331a9108f60e11b81526004810184905233916001600160a01b031690636352211e90602401602060405180830381865afa15801561147f573d5f5f3e3d5ffd5b505050506040513d601f19601f820116820180604052508101906114a391906134c9565b6001600160a01b0316146114c95760405162461bcd60e51b8152600401610b9f906134e4565b5f6114d433836108d9565b1161150b5760405162461bcd60e51b81526020600482015260076024820152664e6f206974656d60c81b6044820152606401610b9f565b5f81815260096020908152604091829020825160808101845281548082526001830154938201939093526002820154938101939093526003015460ff161515606083015215158061155f57505f8160200151115b61159a5760405162461bcd60e51b815260206004820152600c60248201526b496e76616c6964206974656d60a01b6044820152606401610b9f565b60408101511561167157335f908152600a602090815260408083208684528252918290208251606081018452858152928401519092918201906115dd9042613416565b815283516020918201528254600181810185555f9485529382902083516003909202019081559082015192810192909255604090810151600290920191909155815190820151849133917f69cd4e2868a2b1a559411d3ba9b7fc980fe107184e05fc8051cc951d68de9e3091906116549042613416565b6040805192835260208301919091520160405180910390a36116df565b8051606410156116df576005548151604051636afa364160e01b81526004810186905260248101919091526001600160a01b0390911690636afa3641906044015f604051808303815f87803b1580156116c8575f5ffd5b505af11580156116da573d5f5f3e3d5ffd5b505050505b8060600151156116f5576116f533836001612548565b5f828152600b6020526040812080549161170e83613507565b9091555050335f908152600c60209081526040808320858452909152812080549161173883613507565b91905055508183336001600160a01b03167f9f1a0bd21656b4c554fcd876acb4d53960e31eda253ca02fa1ed7259627b698b4260405161177a91815260200190565b60405180910390a4505050565b5f828152600660205260408120546117a0908390613488565b9050803410156117e95760405162461bcd60e51b8152602060048201526014602482015273125b9cdd59999a58da595b9d081c185e5b595b9d60621b6044820152606401610b9f565b5f838152600860205260409020541561185a575f83815260086020908152604080832054600790925290912054611821908490613416565b111561185a5760405162461bcd60e51b815260206004820152600860248201526714dbdb19081bdd5d60c21b6044820152606401610b9f565b61187433848460405180602001604052805f815250612401565b5f8381526007602052604081208054849290611891908490613416565b9091555050348110156118d357336108fc6118ac8334613475565b6040518115909202915f818181858888f193505050501580156118d1573d5f5f3e3d5ffd5b505b604051828152839033907f1452773cf753d0d7c71ed9990f7c7e2bdde4a2d08d187b3647953877e400488d906020015b60405180910390a3505050565b600a602052825f5260405f20602052815f5260405f208181548110611933575f80fd5b5f918252602090912060039091020180546001820154600290920154909450909250905083565b6119653383836125ae565b5050565b6119716123d4565b6001600160a01b0381166119b95760405162461bcd60e51b815260206004820152600f60248201526e496e76616c6964206164647265737360881b6044820152606401610b9f565b600480546001600160a01b039092166001600160a01b0319928316811790915560058054909216179055565b5f6119f13360016108d9565b11611a2e5760405162461bcd60e51b815260206004820152600d60248201526c2737903332b93a34b634bd32b960991b6044820152606401610b9f565b6004546001600160a01b0316611a565760405162461bcd60e51b8152600401610b9f9061349f565b6005546040516331a9108f60e11b81526004810183905233916001600160a01b031690636352211e90602401602060405180830381865afa158015611a9d573d5f5f3e3d5ffd5b505050506040513d601f19601f82011682018060405250810190611ac191906134c9565b6001600160a01b031614611ae75760405162461bcd60e51b8152600401610b9f906134e4565b600554604051636afa364160e01b81526004810183905260c860248201526001600160a01b0390911690636afa3641906044015f604051808303815f87803b158015611b31575f5ffd5b505af1158015611b43573d5f5f3e3d5ffd5b50505050611b5333600180612548565b60015f908152600b6020527f72c6bfb7988af3a1efa6568f02a999bc52252641c659d85961ca3d372b57d5cf805491611b8b83613507565b9091555050335f908152600c60209081526040808320600184529091528120805491611bb683613507565b9190505550600181336001600160a01b03167f9f1a0bd21656b4c554fcd876acb4d53960e31eda253ca02fa1ed7259627b698b42604051611bf991815260200190565b60405180910390a450565b6001600160a01b0382165f908152600a602090815260408083208484529091528120905b81548110156114095742828281548110611c4457611c44613461565b905f5260205f2090600302016001015411611d645782846001600160a01b03167f220555484e61f02af627b745eb88734549c647edc99a4d6fcf5c916d0cd04a09848481548110611c9757611c97613461565b905f5260205f2090600302015f0154604051611cb591815260200190565b60405180910390a381548290611ccd90600190613475565b81548110611cdd57611cdd613461565b905f5260205f209060030201828281548110611cfb57611cfb613461565b5f91825260209091208254600390920201908155600180830154908201556002918201549101558154829080611d3357611d3361351f565b5f8281526020812060035f19909301928302018181556001810182905560020155905580611d6081613533565b9150505b80611d6e81613507565b915050611c28565b8051825114611db95760405162461bcd60e51b815260206004820152600f60248201526e098cadccee8d040dad2e6dac2e8c6d608b1b6044820152606401610b9f565b6004546001600160a01b0316611de15760405162461bcd60e51b8152600401610b9f9061349f565b6005546040516331a9108f60e11b81526004810185905233916001600160a01b031690636352211e90602401602060405180830381865afa158015611e28573d5f5f3e3d5ffd5b505050506040513d601f19601f82011682018060405250810190611e4c91906134c9565b6001600160a01b031614611e725760405162461bcd60e51b8152600401610b9f906134e4565b5f5b8251811015611409575f838281518110611e9057611e90613461565b602002602001015190505f838381518110611ead57611ead613461565b6020026020010151905080611ec233846108d9565b1015611f105760405162461bcd60e51b815260206004820152601960248201527f496e73756666696369656e74206974656d2062616c616e6365000000000000006044820152606401610b9f565b5f8281526009602090815260408083208151608081018352815481526001820154938101939093526002810154918301919091526003015460ff1615156060820152905b8281101561205557604082015115611fdf57335f908152600a602090815260408083208b8452825291829020825160608101845287815292850151909291820190611f9f9042613416565b815284516020918201528254600181810185555f94855293829020835160039092020190815590820151928101929092556040015160029091015561204d565b81516064101561204d576005548251604051636afa364160e01b8152600481018b905260248101919091526001600160a01b0390911690636afa3641906044015f604051808303815f87803b158015612036575f5ffd5b505af1158015612048573d5f5f3e3d5ffd5b505050505b600101611f54565b5080606001511561206b5761206b338484612548565b5f838152600b602052604081208054849290612088908490613416565b9091555050335f908152600c60209081526040808320868452909152812080548492906120b6908490613416565b90915550506040514281528390889033907f9f1a0bd21656b4c554fcd876acb4d53960e31eda253ca02fa1ed7259627b698b9060200160405180910390a4505050600101611e74565b6001600160a01b0382165f908152600a602090815260408083208484528252808320805482518185028101850190935280835260609493849084015b82821015612188578382905f5260205f2090600302016040518060600160405290815f8201548152602001600182015481526020016002820154815250508152602001906001019061213b565b509293505f9250829150505b82518110156121d857428382815181106121b0576121b0613461565b60200260200101516020015111156121d057816121cc81613507565b9250505b600101612194565b505f816001600160401b038111156121f2576121f2612e9b565b60405190808252806020026020018201604052801561224457816020015b61223160405180606001604052805f81526020015f81526020015f81525090565b8152602001906001900390816122105790505b5090505f805b84518110156122c6574285828151811061226657612266613461565b60200260200101516020015111156122be5784818151811061228a5761228a613461565b60200260200101518383815181106122a4576122a4613461565b602002602001018190525081806122ba90613507565b9250505b60010161224a565b50909695505050505050565b60605f5f5f6122e08561263a565b5f95865260066020908152604080882054600783528189205460089093529720549197909550909350915050565b6001600160a01b039182165f90815260016020908152604080832093909416825291909152205460ff1690565b336001600160a01b038616811480159061235c575061235a868261230e565b155b1561238d5760405163711bec9160e11b81526001600160a01b03808316600483015287166024820152604401610b9f565b610bb5868686868661284e565b6123a26123d4565b6001600160a01b0381166123cb57604051631e4fbdf760e01b81525f6004820152602401610b9f565b610c14816124c1565b6003546001600160a01b0316331461117c5760405163118cdaa760e01b8152336004820152602401610b9f565b6001600160a01b03841661242a57604051632bfa23e760e11b81525f6004820152602401610b9f565b60408051600180825260208201869052818301908152606082018590526080820190925290610bb55f878484876128da565b6001600160a01b03841661248557604051632bfa23e760e11b81525f6004820152602401610b9f565b6001600160a01b0385166124ad57604051626a0d4560e21b81525f6004820152602401610b9f565b6124ba85858585856128da565b5050505050565b600380546001600160a01b038381166001600160a01b0319831681179093556040519116919082907f8be0079c531659141344cd1fd0a4f28419497f9722a3daafe3b4186f6b6457e0905f90a35050565b6001600160a01b03841661253b57604051632bfa23e760e11b81525f6004820152602401610b9f565b6114095f858585856128da565b6001600160a01b03831661257057604051626a0d4560e21b81525f6004820152602401610b9f565b604080516001808252602082018590528183019081526060820184905260a082019092525f608082018181529192916124ba918791859085906128da565b6001600160a01b0382166125d65760405162ced3e160e81b81525f6004820152602401610b9f565b6001600160a01b038381165f81815260016020908152604080832094871680845294825291829020805460ff191686151590811790915591519182527f17307eab39ab6107e8899845ad3d59bd9653f200f220920489ca2b5937696c319101611903565b60608161266157505060408051808201909152600481526314d9595960e21b602082015290565b6001820361268f57505060408051808201909152600a8152692332b93a34b634bd32b960b11b602082015290565b600282036126bc5750506040805180820190915260098152682bb0ba32b91021b0b760b91b602082015290565b600382036126e957505060408051808201909152600981526850657374696369646560b81b602082015290565b600a820361271a57505060408051808201909152600d81526c11dbdb19195b8814da1bdd995b609a1b602082015290565b600b82036127525750506040805180820190915260148152732930b4b73137bb902bb0ba32b934b7339021b0b760611b602082015290565b600c820361278957505060408051808201909152601381527226bcb9ba34b1b0b6102332b93a34b634bd32b960691b602082015290565b601482036127c05750506040805180820190915260138152720c4b521bdd5c8811dc9bdddd1a08109bdbdcdd606a1b602082015290565b601582036127f85750506040805180820190915260148152730c8d0b521bdd5c8811dc9bdddd1a08109bdbdcdd60621b602082015290565b6016820361282b57505060408051808201909152600f81526e14985c994814d9595908109bdbdcdd608a1b602082015290565b50506040805180820190915260078152662ab735b737bbb760c91b602082015290565b6001600160a01b03841661287757604051632bfa23e760e11b81525f6004820152602401610b9f565b6001600160a01b03851661289f57604051626a0d4560e21b81525f6004820152602401610b9f565b604080516001808252602082018690528183019081526060820185905260808201909252906128d187878484876128da565b50505050505050565b6128e68585858561292d565b6001600160a01b038416156124ba578251339060010361291f5760208481015190840151612918838989858589612b3c565b5050610bb5565b610bb5818787878787612c5d565b805182511461295c5781518151604051635b05999160e01b815260048101929092526024820152604401610b9f565b335f5b8351811015612a5e576020818102858101820151908501909101516001600160a01b03881615612a10575f828152602081815260408083206001600160a01b038c168452909152902054818110156129ea576040516303dee4c560e01b81526001600160a01b038a166004820152602481018290526044810183905260648101849052608401610b9f565b5f838152602081815260408083206001600160a01b038d16845290915290209082900390555b6001600160a01b03871615612a54575f828152602081815260408083206001600160a01b038b16845290915281208054839290612a4e908490613416565b90915550505b505060010161295f565b508251600103612ade5760208301515f906020840151909150856001600160a01b0316876001600160a01b0316846001600160a01b03167fc3d58168c5ae7397731d063d5bbf3d657854427343f4c083240f7aacaa2d0f628585604051612acf929190918252602082015260400190565b60405180910390a450506124ba565b836001600160a01b0316856001600160a01b0316826001600160a01b03167f4a39dc06d4c0dbc64b70af90fd698a233a518aa5d07e595d983b8c0526c8f7fb8686604051612b2d9291906131b5565b60405180910390a45050505050565b6001600160a01b0384163b15610bb55760405163f23a6e6160e01b81526001600160a01b0385169063f23a6e6190612b809089908990889088908890600401613548565b6020604051808303815f875af1925050508015612bba575060408051601f3d908101601f19168201909252612bb79181019061358c565b60015b612c21573d808015612be7576040519150601f19603f3d011682016040523d82523d5f602084013e612bec565b606091505b5080515f03612c1957604051632bfa23e760e11b81526001600160a01b0386166004820152602401610b9f565b805160208201fd5b6001600160e01b0319811663f23a6e6160e01b146128d157604051632bfa23e760e11b81526001600160a01b0386166004820152602401610b9f565b6001600160a01b0384163b15610bb55760405163bc197c8160e01b81526001600160a01b0385169063bc197c8190612ca190899089908890889088906004016135a7565b6020604051808303815f875af1925050508015612cdb575060408051601f3d908101601f19168201909252612cd89181019061358c565b60015b612d08573d808015612be7576040519150601f19603f3d011682016040523d82523d5f602084013e612bec565b6001600160e01b0319811663bc197c8160e01b146128d157604051632bfa23e760e11b81526001600160a01b0386166004820152602401610b9f565b6001600160a01b0381168114610c14575f5ffd5b5f5f5f60608486031215612d6a575f5ffd5b8335612d7581612d44565b95602085013595506040909401359392505050565b5f5f60408385031215612d9b575f5ffd5b8235612da681612d44565b946020939093013593505050565b6001600160e01b031981168114610c14575f5ffd5b5f60208284031215612dd9575f5ffd5b8135612de481612db4565b9392505050565b5f60208284031215612dfb575f5ffd5b5035919050565b5f81518084528060208401602086015e5f602082860101526020601f19601f83011685010191505092915050565b602081525f612de46020830184612e02565b80358015158114612e51575f5ffd5b919050565b5f5f5f5f5f60a08688031215612e6a575f5ffd5b85359450602086013593506040860135925060608601359150612e8f60808701612e42565b90509295509295909350565b634e487b7160e01b5f52604160045260245ffd5b604051601f8201601f191681016001600160401b0381118282101715612ed757612ed7612e9b565b604052919050565b5f6001600160401b03821115612ef757612ef7612e9b565b5060051b60200190565b5f82601f830112612f10575f5ffd5b8135612f23612f1e82612edf565b612eaf565b8082825260208201915060208360051b860101925085831115612f44575f5ffd5b602085015b83811015612f61578035835260209283019201612f49565b5095945050505050565b5f82601f830112612f7a575f5ffd5b81356001600160401b03811115612f9357612f93612e9b565b612fa6601f8201601f1916602001612eaf565b818152846020838601011115612fba575f5ffd5b816020850160208301375f918101602001919091529392505050565b5f5f5f5f5f60a08688031215612fea575f5ffd5b8535612ff581612d44565b9450602086013561300581612d44565b935060408601356001600160401b0381111561301f575f5ffd5b61302b88828901612f01565b93505060608601356001600160401b03811115613046575f5ffd5b61305288828901612f01565b92505060808601356001600160401b0381111561306d575f5ffd5b61307988828901612f6b565b9150509295509295909350565b5f5f60408385031215613097575f5ffd5b50508035926020909101359150565b5f5f604083850312156130b7575f5ffd5b82356001600160401b038111156130cc575f5ffd5b8301601f810185136130dc575f5ffd5b80356130ea612f1e82612edf565b8082825260208201915060208360051b85010192508783111561310b575f5ffd5b6020840193505b8284101561313657833561312581612d44565b825260209384019390910190613112565b945050505060208301356001600160401b03811115613153575f5ffd5b61315f85828601612f01565b9150509250929050565b5f8151808452602084019350602083015f5b8281101561319957815186526020958601959091019060010161317b565b5093949350505050565b602081525f612de46020830184613169565b604081525f6131c76040830185613169565b82810360208401526131d98185613169565b95945050505050565b5f5f604083850312156131f3575f5ffd5b82356001600160401b03811115613208575f5ffd5b61321485828601612f01565b92505060208301356001600160401b03811115613153575f5ffd5b5f5f60408385031215613240575f5ffd5b823561324b81612d44565b915061325960208401612e42565b90509250929050565b5f60208284031215613272575f5ffd5b8135612de481612d44565b5f5f5f6060848603121561328f575f5ffd5b8335925060208401356001600160401b038111156132ab575f5ffd5b6132b786828701612f01565b92505060408401356001600160401b038111156132d2575f5ffd5b6132de86828701612f01565b9150509250925092565b602080825282518282018190525f918401906040840190835b8181101561333b57835180518452602081015160208501526040810151604085015250606083019250602084019350600181019050613301565b509095945050505050565b608081525f6133586080830187612e02565b6020830195909552506040810192909252606090910152919050565b5f5f60408385031215613385575f5ffd5b823561339081612d44565b915060208301356133a081612d44565b809150509250929050565b5f5f5f5f5f60a086880312156133bf575f5ffd5b85356133ca81612d44565b945060208601356133da81612d44565b9350604086013592506060860135915060808601356001600160401b0381111561306d575f5ffd5b634e487b7160e01b5f52601160045260245ffd5b808201808211156108fa576108fa613402565b600181811c9082168061343d57607f821691505b60208210810361345b57634e487b7160e01b5f52602260045260245ffd5b50919050565b634e487b7160e01b5f52603260045260245ffd5b818103818111156108fa576108fa613402565b80820281158282048414176108fa576108fa613402565b60208082526010908201526f141b185b9d139195081b9bdd081cd95d60821b604082015260600190565b5f602082840312156134d9575f5ffd5b8151612de481612d44565b6020808252600990820152682737ba1037bbb732b960b91b604082015260600190565b5f6001820161351857613518613402565b5060010190565b634e487b7160e01b5f52603160045260245ffd5b5f8161354157613541613402565b505f190190565b6001600160a01b03868116825285166020820152604081018490526060810183905260a0608082018190525f9061358190830184612e02565b979650505050505050565b5f6020828403121561359c575f5ffd5b8151612de481612db4565b6001600160a01b0386811682528516602082015260a0604082018190525f906135d290830186613169565b82810360608401526135e48186613169565b905082810360808401526135f88185612e02565b9897505050505050505056fea264697066735822122040d8ceaa8071055e92cafdf354e1e94846697a898088261dba750e00d16142b264736f6c634300081e003392e85d02570a8092d09a6e3a57665bc3815a2699a4074001bf1ccabf660f5a391cd9b38a3a53bab494aa1d85adb715d6959eb17b9c356637d3fa91f568fbb49f60a5a5a37b4d1dd7d7b24e4897f9467e8debaad1cd5a21b57a3edb667b346442c7b54da85b38015141aec405fe9a03fa9e057971f48e8d0d8fc78485848a231092e85d02570a8092d09a6e3a57665bc3815a2699a4074001bf1ccabf660f5a371cd9b38a3a53bab494aa1d85adb715d6959eb17b9c356637d3fa91f568fbb49e31500e3e63276b9e30de61d3b3eba79d113a6ecb97bdb48e6ff3bfbcf39843a0c7b54da85b38015141aec405fe9a03fa9e057971f48e8d0d8fc78485848a23121cd9b38a3a53bab494aa1d85adb715d6959eb17b9c356637d3fa91f568fbb49d60a5a5a37b4d1dd7d7b24e4897f9467e8debaad1cd5a21b57a3edb667b34644192e85d02570a8092d09a6e3a57665bc3815a2699a4074001bf1ccabf660f5a3868747470733a2f2f6170692e6c69736b67617264656e2e6578616d706c652f6974656d2f7b69647d2e6a736f6e60a5a5a37b4d1dd7d7b24e4897f9467e8debaad1cd5a21b57a3edb667b34643f31500e3e63276b9e30de61d3b3eba79d113a6ecb97bdb48e6ff3bfbcf39843a331500e3e63276b9e30de61d3b3eba79d113a6ecb97bdb48e6ff3bfbcf39843a21cd9b38a3a53bab494aa1d85adb715d6959eb17b9c356637d3fa91f568fbb4a031500e3e63276b9e30de61d3b3eba79d113a6ecb97bdb48e6ff3bfbcf39843a160a5a5a37b4d1dd7d7b24e4897f9467e8debaad1cd5a21b57a3edb667b346440c7b54da85b38015141aec405fe9a03fa9e057971f48e8d0d8fc78485848a2313c7b54da85b38015141aec405fe9a03fa9e057971f48e8d0d8fc78485848a231192e85d02570a8092d09a6e3a57665bc3815a2699a4074001bf1ccabf660f5a36",
  "linkReferences": {},
  "deployedLinkReferences": {},
  "immutableReferences": {},
  "inputSourceName": "project/contracts/GameItems.sol",
  "buildInfoId": "solc-0_8_30-948826ec32c7c4e8dc20a49a93cf499f5dd3570d"
}