{
  "_format": "hh3-artifact-1",
  "contractName": "GardenToken",
  "sourceName": "contracts/GardenToken.sol",
  "abi": [
    {
      "inputs": [
        {
          "internalType": "uint256",
          "name": "_initTotalSupply",
          "type": "uint256"
        }
      ],
      "stateMutability": "nonpayable",
      "type": "constructor"
    },
    {
      "anonymous": false,
      "inputs": [
        {
          "indexed": true,
          "internalType": "address",
          "name": "from",
          "type": "address"
        },
        {
          "indexed": true,
          "internalType": "address",
          "name": "spender",
          "type": "address"
        },
        {
          "indexed": false,
          "internalType": "uint256",
          "name": "value",
          "type": "uint256"
        }
      ],
      "name": "Approval",
      "type": "event"
    },
    {
      "anonymous": false,
      "inputs": [
        {
          "indexed": false,
          "internalType": "uint256",
          "name": "day",
          "type": "uint256"
        },
        {
          "indexed": false,
          "internalType": "uint256",
          "name": "amount",
          "type": "uint256"
        }
      ],
      "name": "DailyMintLimitReached",
      "type": "event"
    },
    {
      "anonymous": false,
      "inputs": [
        {
          "indexed": true,
          "internalType": "address",
          "name": "gameContract",
          "type": "address"
        }
      ],
      "name": "GameContractSet",
      "type": "event"
    },
    {
      "anonymous": false,
      "inputs": [
        {
          "indexed": false,
          "internalType": "address",
          "name": "account",
          "type": "address"
        }
      ],
      "name": "Paused",
      "type": "event"
    },
    {
      "anonymous": false,
      "inputs": [
        {
          "indexed": true,
          "internalType": "address",
          "name": "plantNFT",
          "type": "address"
        }
      ],
      "name": "PlantNFTSet",
      "type": "event"
    },
    {
      "anonymous": false,
      "inputs": [
        {
          "indexed": true,
          "internalType": "address",
          "name": "player",
          "type": "address"
        },
        {
          "indexed": false,
          "internalType": "uint256",
          "name": "amount",
          "type": "uint256"
        },
        {
          "indexed": false,
          "internalType": "uint8",
          "name": "rarity",
          "type": "uint8"
        },
        {
          "indexed": false,
          "internalType": "uint256",
          "name": "stage",
          "type": "uint256"
        }
      ],
      "name": "RewardMinted",
      "type": "event"
    },
    {
      "anonymous": false,
      "inputs": [
        {
          "indexed": true,
          "internalType": "address",
          "name": "burner",
          "type": "address"
        },
        {
          "indexed": false,
          "internalType": "uint256",
          "name": "amount",
          "type": "uint256"
        },
        {
          "indexed": false,
          "internalType": "uint256",
          "name": "totalBurned",
          "type": "uint256"
        }
      ],
      "name": "TokensBurned",
      "type": "event"
    },
    {
      "anonymous": false,
      "inputs": [
        {
          "indexed": true,
          "internalType": "address",
          "name": "from",
          "type": "address"
        },
        {
          "indexed": true,
          "internalType": "address",
          "name": "to",
          "type": "address"
        },
        {
          "indexed": false,
          "internalType": "uint256",
          "name": "value",
          "type": "uint256"
        }
      ],
      "name": "Transfer",
      "type": "event"
    },
    {
      "anonymous": false,
      "inputs": [
        {
          "indexed": false,
          "internalType": "address",
          "name": "account",
          "type": "address"
        }
      ],
      "name": "UnPaused",
      "type": "event"
    },
    {
      "inputs": [],
      "name": "BURN_COOLDOWN",
      "outputs": [
        {
          "internalType": "uint256",
          "name": "",
          "type": "uint256"
        }
      ],
      "stateMutability": "view",
      "type": "function"
    },
    {
      "inputs": [],
      "name": "DECIMALS",
      "outputs": [
        {
          "internalType": "uint8",
          "name": "",
          "type": "uint8"
        }
      ],
      "stateMutability": "view",
      "type": "function"
    },
    {
      "inputs": [],
      "name": "MAX_DAILY_MINT",
      "outputs": [
        {
          "internalType": "uint256",
          "name": "",
          "type": "uint256"
        }
      ],
      "stateMutability": "view",
      "type": "function"
    },
    {
      "inputs": [],
      "name": "MAX_SUPPLY",
      "outputs": [
        {
          "internalType": "uint256",
          "name": "",
          "type": "uint256"
        }
      ],
      "stateMutability": "view",
      "type": "function"
    },
    {
      "inputs": [],
      "name": "NAME",
      "outputs": [
        {
          "internalType": "string",
          "name": "",
          "type": "string"
        }
      ],
      "stateMutability": "view",
      "type": "function"
    },
    {
      "inputs": [],
      "name": "SYMBOL",
      "outputs": [
        {
          "internalType": "string",
          "name": "",
          "type": "string"
        }
      ],
      "stateMutability": "view",
      "type": "function"
    },
    {
      "inputs": [
        {
          "internalType": "address",
          "name": "_owner",
          "type": "address"
        },
        {
          "internalType": "address",
          "name": "_spender",
          "type": "address"
        }
      ],
      "name": "allowance",
      "outputs": [
        {
          "internalType": "uint256",
          "name": "",
          "type": "uint256"
        }
      ],
      "stateMutability": "view",
      "type": "function"
    },
    {
      "inputs": [
        {
          "internalType": "address",
          "name": "",
          "type": "address"
        },
        {
          "internalType": "address",
          "name": "",
          "type": "address"
        }
      ],
      "name": "allowances",
      "outputs": [
        {
          "internalType": "uint256",
          "name": "",
          "type": "uint256"
        }
      ],
      "stateMutability": "view",
      "type": "function"
    },
    {
      "inputs": [
        {
          "internalType": "address",
          "name": "_spender",
          "type": "address"
        },
        {
          "internalType": "uint256",
          "name": "amount",
          "type": "uint256"
        }
      ],
      "name": "approve",
      "outputs": [
        {
          "internalType": "bool",
          "name": "",
          "type": "bool"
        }
      ],
      "stateMutability": "nonpayable",
      "type": "function"
    },
    {
      "inputs": [
        {
          "internalType": "address",
          "name": "account",
          "type": "address"
        }
      ],
      "name": "balanceOf",
      "outputs": [
        {
          "internalType": "uint256",
          "name": "",
          "type": "uint256"
        }
      ],
      "stateMutability": "view",
      "type": "function"
    },
    {
      "inputs": [
        {
          "internalType": "address",
          "name": "",
          "type": "address"
        }
      ],
      "name": "balances",
      "outputs": [
        {
          "internalType": "uint256",
          "name": "",
          "type": "uint256"
        }
      ],
      "stateMutability": "view",
      "type": "function"
    },
    {
      "inputs": [
        {
          "internalType": "uint256",
          "name": "amount",
          "type": "uint256"
        }
      ],
      "name": "burn",
      "outputs": [],
      "stateMutability": "nonpayable",
      "type": "function"
    },
    {
      "inputs": [],
      "name": "burnRate",
      "outputs": [
        {
          "internalType": "uint256",
          "name": "",
          "type": "uint256"
        }
      ],
      "stateMutability": "view",
      "type": "function"
    },
    {
      "inputs": [
        {
          "internalType": "uint256",
          "name": "_amount",
          "type": "uint256"
        }
      ],
      "name": "burnTokens",
      "outputs": [],
      "stateMutability": "nonpayable",
      "type": "function"
    },
    {
      "inputs": [
        {
          "internalType": "uint8",
          "name": "rarity",
          "type": "uint8"
        },
        {
          "internalType": "uint256",
          "name": "growthStage",
          "type": "uint256"
        }
      ],
      "name": "calculateReward",
      "outputs": [
        {
          "internalType": "uint256",
          "name": "",
          "type": "uint256"
        }
      ],
      "stateMutability": "pure",
      "type": "function"
    },
    {
      "inputs": [
        {
          "internalType": "address",
          "name": "user",
          "type": "address"
        }
      ],
      "name": "canBurn",
      "outputs": [
        {
          "internalType": "bool",
          "name": "",
          "type": "bool"
        }
      ],
      "stateMutability": "view",
      "type": "function"
    },
    {
      "inputs": [],
      "name": "circulatingSupply",
      "outputs": [
        {
          "internalType": "uint256",
          "name": "",
          "type": "uint256"
        }
      ],
      "stateMutability": "view",
      "type": "function"
    },
    {
      "inputs": [
        {
          "internalType": "uint256",
          "name": "",
          "type": "uint256"
        }
      ],
      "name": "dailyMintedAmount",
      "outputs": [
        {
          "internalType": "uint256",
          "name": "",
          "type": "uint256"
        }
      ],
      "stateMutability": "view",
      "type": "function"
    },
    {
      "inputs": [],
      "name": "decimals",
      "outputs": [
        {
          "internalType": "uint8",
          "name": "",
          "type": "uint8"
        }
      ],
      "stateMutability": "pure",
      "type": "function"
    },
    {
      "inputs": [
        {
          "internalType": "address",
          "name": "_from",
          "type": "address"
        },
        {
          "internalType": "uint256",
          "name": "_amount",
          "type": "uint256"
        }
      ],
      "name": "emergencyBurn",
      "outputs": [],
      "stateMutability": "nonpayable",
      "type": "function"
    },
    {
      "inputs": [],
      "name": "gameContract",
      "outputs": [
        {
          "internalType": "address",
          "name": "",
          "type": "address"
        }
      ],
      "stateMutability": "view",
      "type": "function"
    },
    {
      "inputs": [],
      "name": "getCurrentDayMintedAmount",
      "outputs": [
        {
          "internalType": "uint256",
          "name": "",
          "type": "uint256"
        }
      ],
      "stateMutability": "view",
      "type": "function"
    },
    {
      "inputs": [
        {
          "internalType": "uint256",
          "name": "day",
          "type": "uint256"
        }
      ],
      "name": "getDailyMintedAmount",
      "outputs": [
        {
          "internalType": "uint256",
          "name": "",
          "type": "uint256"
        }
      ],
      "stateMutability": "view",
      "type": "function"
    },
    {
      "inputs": [],
      "name": "getRemainingDailyMint",
      "outputs": [
        {
          "internalType": "uint256",
          "name": "",
          "type": "uint256"
        }
      ],
      "stateMutability": "view",
      "type": "function"
    },
    {
      "inputs": [
        {
          "internalType": "address",
          "name": "user",
          "type": "address"
        }
      ],
      "name": "getTimeUntilBurn",
      "outputs": [
        {
          "internalType": "uint256",
          "name": "",
          "type": "uint256"
        }
      ],
      "stateMutability": "view",
      "type": "function"
    },
    {
      "inputs": [],
      "name": "getTokenomics",
      "outputs": [
        {
          "internalType": "uint256",
          "name": "_totalSupply",
          "type": "uint256"
        },
        {
          "internalType": "uint256",
          "name": "_maxSupply",
          "type": "uint256"
        },
        {
          "internalType": "uint256",
          "name": "_totalBurned",
          "type": "uint256"
        },
        {
          "internalType": "uint256",
          "name": "_circulatingSupply",
          "type": "uint256"
        },
        {
          "internalType": "uint256",
          "name": "_treasuryBalance",
          "type": "uint256"
        }
      ],
      "stateMutability": "view",
      "type": "function"
    },
    {
      "inputs": [
        {
          "internalType": "address",
          "name": "",
          "type": "address"
        }
      ],
      "name": "lastBurnTime",
      "outputs": [
        {
          "internalType": "uint256",
          "name": "",
          "type": "uint256"
        }
      ],
      "stateMutability": "view",
      "type": "function"
    },
    {
      "inputs": [
        {
          "internalType": "address",
          "name": "to",
          "type": "address"
        },
        {
          "internalType": "uint256",
          "name": "plantId",
          "type": "uint256"
        },
        {
          "internalType": "uint8",
          "name": "rarity",
          "type": "uint8"
        },
        {
          "internalType": "uint256",
          "name": "growthStage",
          "type": "uint256"
        }
      ],
      "name": "mintPlantReward",
      "outputs": [],
      "stateMutability": "nonpayable",
      "type": "function"
    },
    {
      "inputs": [
        {
          "internalType": "address",
          "name": "to",
          "type": "address"
        },
        {
          "internalType": "uint256",
          "name": "amount",
          "type": "uint256"
        }
      ],
      "name": "mintReward",
      "outputs": [],
      "stateMutability": "nonpayable",
      "type": "function"
    },
    {
      "inputs": [
        {
          "internalType": "address",
          "name": "_to",
          "type": "address"
        },
        {
          "internalType": "uint256",
          "name": "_amount",
          "type": "uint256"
        }
      ],
      "name": "mintTokens",
      "outputs": [],
      "stateMutability": "nonpayable",
      "type": "function"
    },
    {
      "inputs": [],
      "name": "name",
      "outputs": [
        {
          "internalType": "string",
          "name": "",
          "type": "string"
        }
      ],
      "stateMutability": "pure",
      "type": "function"
    },
    {
      "inputs": [],
      "name": "owner",
      "outputs": [
        {
          "internalType": "address",
          "name": "",
          "type": "address"
        }
      ],
      "stateMutability": "view",
      "type": "function"
    },
    {
      "inputs": [],
      "name": "pause",
      "outputs": [],
      "stateMutability": "nonpayable",
      "type": "function"
    },
    {
      "inputs": [],
      "name": "paused",
      "outputs": [
        {
          "internalType": "bool",
          "name": "",
          "type": "bool"
        }
      ],
      "stateMutability": "view",
      "type": "function"
    },
    {
      "inputs": [],
      "name": "plantNFT",
      "outputs": [
        {
          "internalType": "contract IPlantNFT",
          "name": "",
          "type": "address"
        }
      ],
      "stateMutability": "view",
      "type": "function"
    },
    {
      "inputs": [],
      "name": "plantNFTAddress",
      "outputs": [
        {
          "internalType": "address",
          "name": "",
          "type": "address"
        }
      ],
      "stateMutability": "view",
      "type": "function"
    },
    {
      "inputs": [
        {
          "internalType": "address",
          "name": "_gameContract",
          "type": "address"
        }
      ],
      "name": "setGameContract",
      "outputs": [],
      "stateMutability": "nonpayable",
      "type": "function"
    },
    {
      "inputs": [
        {
          "internalType": "address",
          "name": "_plantNFTAddress",
          "type": "address"
        }
      ],
      "name": "setPlantNFT",
      "outputs": [],
      "stateMutability": "nonpayable",
      "type": "function"
    },
    {
      "inputs": [],
      "name": "symbol",
      "outputs": [
        {
          "internalType": "string",
          "name": "",
          "type": "string"
        }
      ],
      "stateMutability": "pure",
      "type": "function"
    },
    {
      "inputs": [],
      "name": "totalBurned",
      "outputs": [
        {
          "internalType": "uint256",
          "name": "",
          "type": "uint256"
        }
      ],
      "stateMutability": "view",
      "type": "function"
    },
    {
      "inputs": [],
      "name": "totalSupply",
      "outputs": [
        {
          "internalType": "uint256",
          "name": "",
          "type": "uint256"
        }
      ],
      "stateMutability": "view",
      "type": "function"
    },
    {
      "inputs": [
        {
          "internalType": "address",
          "name": "_to",
          "type": "address"
        },
        {
          "internalType": "uint256",
          "name": "_amount",
          "type": "uint256"
        }
      ],
      "name": "transfer",
      "outputs": [
        {
          "internalType": "bool",
          "name": "",
          "type": "bool"
        }
      ],
      "stateMutability": "nonpayable",
      "type": "function"
    },
    {
      "inputs": [
        {
          "internalType": "address",
          "name": "_from",
          "type": "address"
        },
        {
          "internalType": "address",
          "name": "_to",
          "type": "address"
        },
        {
          "internalType": "uint256",
          "name": "_value",
          "type": "uint256"
        }
      ],
      "name": "transferFrom",
      "outputs": [
        {
          "internalType": "bool",
          "name": "",
          "type": "bool"
        }
      ],
      "stateMutability": "nonpayable",
      "type": "function"
    },
    {
      "inputs": [],
      "name": "unpause",
      "outputs": [],
      "stateMutability": "nonpayable",
      "type": "function"
    }
  ],
  "bytecode": "0x6080604052348015600e575f5ffd5b50604051611c6d380380611c6d833981016040819052602b916097565b600380546001600160a01b031916339081179091556006805460ff60a01b191690555f818152602081815260408083208590556002859055518481527fddf252ad1be2c89b69c2b068fc378daa952ba7f163c4a11628f55a4df523b3ef910160405180910390a35060ad565b5f6020828403121560a6575f5ffd5b5051919050565b611bb3806100ba5f395ff3fe608060405234801561000f575f5ffd5b506004361061026b575f3560e01c806370a082311161014b578063b3a77f88116100bf578063d51e013811610084578063d51e0138146105c4578063d89135cd146105d7578063dd62ed3e146105e0578063ee2923d914610618578063f0dda65c14610648578063f76f8d781461065b575f5ffd5b8063b3a77f881461057b578063bed998501461058e578063c151f0f114610596578063ca42c123146105a9578063d3f33009146105b1575f5ffd5b806395d89b411161011057806395d89b41146104e55780639a49090e14610504578063a3f4df7e14610517578063a65f1c0014610542578063a9059cbb14610555578063abf084a314610568575f5ffd5b806370a082311461046f5780637f4592f5146104975780638456cb59146104aa5780638da5cb5b146104b25780639358928b146104dd575f5ffd5b80633f4ba83a116101e257806355acaa19116101a757806355acaa19146103db57806355b6ed5c146103fa5780635923f705146104245780635c975abb1461043557806360f123d2146104495780636d1b229d1461045c575f5ffd5b80633f4ba83a14610382578063405ebd4d1461038c57806341e4b16c1461039f57806342966c68146103be57806350e3696d146103d1575f5ffd5b806327e235e31161023357806327e235e3146103155780632c8957b7146103345780632e0f26251461033c578063313ce5671461035657806332cb6b0c1461035d5780633820a6861461036f575f5ffd5b806306fdde031461026f57806306ff498e146102a9578063095ea7b3146102d657806318160ddd146102f957806323b872dd14610302575b5f5ffd5b60408051808201909152600c81526b23b0b93232b7102a37b5b2b760a11b60208201525b6040516102a0919061189a565b60405180910390f35b6102c86102b73660046118cf565b60076020525f908152604090205481565b6040519081526020016102a0565b6102e96102e4366004611901565b61067d565b60405190151581526020016102a0565b6102c860025481565b6102e9610310366004611929565b61075f565b6102c8610323366004611963565b5f6020819052908152604090205481565b6102c861092f565b610344601281565b60405160ff90911681526020016102a0565b6012610344565b6102c86a52b7d2dcc80cd2e400000081565b6102e961037d366004611963565b610952565b61038a610981565b005b61038a61039a366004611963565b6109ee565b6102c86103ad366004611963565b60096020525f908152604090205481565b61038a6103cc3660046118cf565b610aa9565b6102c86201518081565b6102c86103e93660046118cf565b5f9081526007602052604090205490565b6102c861040836600461197c565b600160209081525f928352604080842090915290825290205481565b6102c869021e19e0c9bab240000081565b6006546102e990600160a01b900460ff1681565b6102c86104573660046119bd565b610c8b565b61038a61046a3660046118cf565b610d67565b6102c861047d366004611963565b6001600160a01b03165f9081526020819052604090205490565b61038a6104a53660046119d7565b610d9d565b61038a611038565b6003546104c5906001600160a01b031681565b6040516001600160a01b0390911681526020016102a0565b6102c86110a5565b60408051808201909152600381526223a22760e91b6020820152610293565b61038a610512366004611901565b6110c6565b6102936040518060400160405280600c81526020016b23b0b93232b7102a37b5b2b760a11b81525081565b61038a610550366004611963565b611365565b6102e9610563366004611901565b61142c565b6006546104c5906001600160a01b031681565b6102c8610589366004611963565b611525565b6102c861156d565b61038a6105a4366004611901565b6115b0565b6102c86116e0565b6004546104c5906001600160a01b031681565b6005546104c5906001600160a01b031681565b6102c860085481565b6102c86105ee36600461197c565b6001600160a01b039182165f90815260016020908152604080832093909416825291909152205490565b610620611734565b604080519586526020860194909452928401919091526060830152608082015260a0016102a0565b61038a610656366004611901565b611773565b6102936040518060400160405280600381526020016223a22760e91b81525081565b6006545f90600160a01b900460ff16156106b25760405162461bcd60e51b81526004016106a990611a18565b60405180910390fd5b6001600160a01b0383166106fa5760405162461bcd60e51b815260206004820152600f60248201526e24b73b30b634b21039b832b73232b960891b60448201526064016106a9565b335f8181526001602090815260408083206001600160a01b03881680855290835292819020869055518581529192917f8c5be1e5ebec7d5bd14f71427d1e84f3dd0314c0f7b2291e5b200ac8c7c3b92591015b60405180910390a35060015b92915050565b6006545f90600160a01b900460ff161561078b5760405162461bcd60e51b81526004016106a990611a18565b6001600160a01b0384165f908152602081905260409020548211156107c25760405162461bcd60e51b81526004016106a990611a44565b6001600160a01b0384165f9081526001602090815260408083203384529091529020548211156108345760405162461bcd60e51b815260206004820152601760248201527f496e73756666696369656e7420616c6c6f77616e63657300000000000000000060448201526064016106a9565b6001600160a01b03831661085a5760405162461bcd60e51b81526004016106a990611a72565b6001600160a01b0384165f9081526020819052604081208054849290610881908490611ab1565b90915550506001600160a01b0383165f90815260208190526040812080548492906108ad908490611ac4565b90915550506001600160a01b0384165f908152600160209081526040808320338452909152812080548492906108e4908490611ab1565b92505081905550826001600160a01b0316846001600160a01b03165f516020611b5e5f395f51905f528460405161091d91815260200190565b60405180910390a35060019392505050565b5f8061093e6201518042611ad7565b5f9081526007602052604090205492915050565b6001600160a01b0381165f90815260096020526040812054610978906201518090611ac4565b42101592915050565b6003546001600160a01b031633146109ab5760405162461bcd60e51b81526004016106a990611af6565b6006805460ff60a01b191690556040513381527fff2b959f2bcdb44c7ecb4b16dae055431019d7350607125cfc2b74a06632c90e906020015b60405180910390a1565b6003546001600160a01b03163314610a185760405162461bcd60e51b81526004016106a990611af6565b6001600160a01b038116610a605760405162461bcd60e51b815260206004820152600f60248201526e496e76616c6964206164647265737360881b60448201526064016106a9565b600480546001600160a01b0319166001600160a01b0383169081179091556040517f0fda64424e106ff66a5173d9c3ec7fb2f234f4488457686975a66fe3371fd0f2905f90a250565b600654600160a01b900460ff1615610ad35760405162461bcd60e51b81526004016106a990611a18565b678ac7230489e8000080821015610b2c5760405162461bcd60e51b815260206004820152601d60248201527f4d696e696d756d206275726e20616d6f756e742069732031302047444e00000060448201526064016106a9565b335f90815260208190526040902054821115610b5a5760405162461bcd60e51b81526004016106a990611a44565b335f90815260096020526040902054610b77906201518090611ac4565b421015610bbd5760405162461bcd60e51b81526020600482015260146024820152734275726e20636f6f6c646f776e2061637469766560601b60448201526064016106a9565b335f9081526020819052604081208054849290610bdb908490611ab1565b925050819055508160025f828254610bf39190611ab1565b925050819055508160085f828254610c0b9190611ac4565b9091555050335f818152600960209081526040808320429055518581529192915f516020611b5e5f395f51905f52910160405180910390a360085460405133917fccbea4088a3b7ae9ca2d15fab9a9742a4075b4d7247768a1eecea917565aba0091610c7f91868252602082015260400190565b60405180910390a25050565b5f815f03610c9a57505f610759565b678ac7230489e800005f60ff8516600103610cb757506001610d07565b8460ff16600203610cca57506002610d07565b8460ff16600303610cdd57506003610d07565b8460ff16600403610cf057506005610d07565b8460ff16600503610d035750600a610d07565b5060015b5f84600103610d1857506032610d3c565b84600203610d285750604b610d3c565b84600303610d3857506064610d3c565b5060645b606481610d498486611b1a565b610d539190611b1a565b610d5d9190611ad7565b9695505050505050565b600654600160a01b900460ff1615610d915760405162461bcd60e51b81526004016106a990611a18565b610d9a81610aa9565b50565b6004546001600160a01b03163314610dec5760405162461bcd60e51b815260206004820152601260248201527113db9b1e4819d85b594818dbdb9d1c9858dd60721b60448201526064016106a9565b600654600160a01b900460ff1615610e165760405162461bcd60e51b81526004016106a990611a18565b6001600160a01b038416610e3c5760405162461bcd60e51b81526004016106a990611a72565b5f610e478383610c8b565b90505f8111610e985760405162461bcd60e51b815260206004820152601860248201527f4e6f2072657761726420666f72207468697320706c616e74000000000000000060448201526064016106a9565b6a52b7d2dcc80cd2e400000081600254610eb29190611ac4565b1115610ed05760405162461bcd60e51b81526004016106a990611b31565b5f610ede6201518042611ad7565b5f8181526007602052604090205490915069021e19e0c9bab240000090610f06908490611ac4565b1115610f4f5760405162461bcd60e51b8152602060048201526018602482015277115e18d959591cc819185a5b1e481b5a5b9d081b1a5b5a5d60421b60448201526064016106a9565b5f8181526007602052604081208054849290610f6c908490611ac4565b90915550506001600160a01b0386165f9081526020819052604081208054849290610f98908490611ac4565b925050819055508160025f828254610fb09190611ac4565b90915550506040518281526001600160a01b038716905f905f516020611b5e5f395f51905f529060200160405180910390a36040805183815260ff861660208201529081018490526001600160a01b038716907fdf923c9b465d7595755f71879ddd0c7a3c3068490681f81665e7c978c9adf21e9060600160405180910390a2505050505050565b6003546001600160a01b031633146110625760405162461bcd60e51b81526004016106a990611af6565b6006805460ff60a01b1916600160a01b1790556040513381527f62e78cea01bee320cd4e420270b5ea74000d11b0c9f74754ebdbfc544b05a258906020016109e4565b305f908152602081905260408120546002546110c19190611ab1565b905090565b6004546001600160a01b031633146111155760405162461bcd60e51b815260206004820152601260248201527113db9b1e4819d85b594818dbdb9d1c9858dd60721b60448201526064016106a9565b600654600160a01b900460ff161561113f5760405162461bcd60e51b81526004016106a990611a18565b6001600160a01b0382166111655760405162461bcd60e51b81526004016106a990611a72565b5f81116111b45760405162461bcd60e51b815260206004820152601d60248201527f416d6f756e74206d7573742062652067726561746572207468616e203000000060448201526064016106a9565b6a52b7d2dcc80cd2e4000000816002546111ce9190611ac4565b11156111ec5760405162461bcd60e51b81526004016106a990611b31565b5f6111fa6201518042611ad7565b5f8181526007602052604090205490915069021e19e0c9bab240000090611222908490611ac4565b111561126b5760405162461bcd60e51b8152602060048201526018602482015277115e18d959591cc819185a5b1e481b5a5b9d081b1a5b5a5d60421b60448201526064016106a9565b5f8181526007602052604081208054849290611288908490611ac4565b90915550505f8181526007602052604090205469021e19e0c9bab23fffff19016112ef576040805182815269021e19e0c9bab240000060208201527f627ffb7c6270256d2bb02dd04507e99409d0fae5d45f0280dbf748caf77426ee910160405180910390a15b6001600160a01b0383165f9081526020819052604081208054849290611316908490611ac4565b925050819055508160025f82825461132e9190611ac4565b90915550506040518281526001600160a01b038416905f905f516020611b5e5f395f51905f529060200160405180910390a3505050565b6003546001600160a01b0316331461138f5760405162461bcd60e51b81526004016106a990611af6565b6001600160a01b0381166113d75760405162461bcd60e51b815260206004820152600f60248201526e496e76616c6964206164647265737360881b60448201526064016106a9565b600580546001600160a01b0383166001600160a01b0319918216811790925560068054909116821790556040517f7ee3a397d843f8a52a01e6d54b72b88be9e8f7c914fad85d12f7d84c1526a792905f90a250565b6006545f90600160a01b900460ff16156114585760405162461bcd60e51b81526004016106a990611a18565b335f908152602081905260409020548211156114865760405162461bcd60e51b81526004016106a990611a44565b6001600160a01b0383166114ac5760405162461bcd60e51b81526004016106a990611a72565b335f90815260208190526040812080548492906114ca908490611ab1565b90915550506001600160a01b0383165f90815260208190526040812080548492906114f6908490611ac4565b90915550506040518281526001600160a01b0384169033905f516020611b5e5f395f51905f529060200161074d565b6001600160a01b0381165f90815260096020526040812054819061154d906201518090611ac4565b905042811161155c575f611566565b6115664282611ab1565b9392505050565b5f6002545f0361157c57505f90565b5f60085460025461158d9190611ac4565b9050806008546127106115a09190611b1a565b6115aa9190611ad7565b91505090565b6003546001600160a01b031633146115da5760405162461bcd60e51b81526004016106a990611af6565b6001600160a01b0382165f908152602081905260409020548111156116115760405162461bcd60e51b81526004016106a990611a44565b6001600160a01b0382165f9081526020819052604081208054839290611638908490611ab1565b925050819055508060025f8282546116509190611ab1565b925050819055508060085f8282546116689190611ac4565b90915550506040518181525f906001600160a01b038416905f516020611b5e5f395f51905f529060200160405180910390a3816001600160a01b03167fccbea4088a3b7ae9ca2d15fab9a9742a4075b4d7247768a1eecea917565aba0082600854604051610c7f929190918252602082015260400190565b5f806116ef6201518042611ad7565b5f8181526007602052604090205490915069021e19e0c9bab240000081101561172b576117268169021e19e0c9bab2400000611ab1565b61172d565b5f5b9250505090565b5f5f5f5f5f6002546a52b7d2dcc80cd2e40000006008546117536110a5565b305f90815260208190526040902054939992985090965094509092509050565b6003546001600160a01b0316331461179d5760405162461bcd60e51b81526004016106a990611af6565b600654600160a01b900460ff16156117c75760405162461bcd60e51b81526004016106a990611a18565b6001600160a01b0382166117ed5760405162461bcd60e51b81526004016106a990611a72565b6a52b7d2dcc80cd2e4000000816002546118079190611ac4565b11156118255760405162461bcd60e51b81526004016106a990611b31565b6001600160a01b0382165f908152602081905260408120805483929061184c908490611ac4565b925050819055508060025f8282546118649190611ac4565b90915550506040518181526001600160a01b038316905f905f516020611b5e5f395f51905f529060200160405180910390a35050565b602081525f82518060208401528060208501604085015e5f604082850101526040601f19601f83011684010191505092915050565b5f602082840312156118df575f5ffd5b5035919050565b80356001600160a01b03811681146118fc575f5ffd5b919050565b5f5f60408385031215611912575f5ffd5b61191b836118e6565b946020939093013593505050565b5f5f5f6060848603121561193b575f5ffd5b611944846118e6565b9250611952602085016118e6565b929592945050506040919091013590565b5f60208284031215611973575f5ffd5b611566826118e6565b5f5f6040838503121561198d575f5ffd5b611996836118e6565b91506119a4602084016118e6565b90509250929050565b803560ff811681146118fc575f5ffd5b5f5f604083850312156119ce575f5ffd5b61191b836119ad565b5f5f5f5f608085870312156119ea575f5ffd5b6119f3856118e6565b935060208501359250611a08604086016119ad565b9396929550929360600135925050565b60208082526012908201527110dbdb9d1c9858dd081a5cc81c185d5cd95960721b604082015260600190565b602080825260149082015273496e73756666696369656e742062616c616e636560601b604082015260600190565b602080825260119082015270125b9d985b1a59081c9958da5c1a595b9d607a1b604082015260600190565b634e487b7160e01b5f52601160045260245ffd5b8181038181111561075957610759611a9d565b8082018082111561075957610759611a9d565b5f82611af157634e487b7160e01b5f52601260045260245ffd5b500490565b6020808252600a908201526927b7363c9027bbb732b960b11b604082015260600190565b808202811582820484141761075957610759611a9d565b60208082526012908201527145786365656473206d617820737570706c7960701b60408201526060019056feddf252ad1be2c89b69c2b068fc378daa952ba7f163c4a11628f55a4df523b3efa264697066735822122041c2fdd1f50f9172113803d7b60640e23c00299dc5727ecd755ca09900e6696164736f6c634300081e0033",
  "linkReferences": {},
  "deployedLinkReferences": {},
  "immutableReferences": {},
  "inputSourceName": "project/contracts/GardenToken.sol",
  "buildInfoId": "solc-0_8_30-72ddabe240dd52c3f590a752548f63b88436904e"
}