{
  "_format": "hh3-artifact-1",
  "contractName": "LiskGarden",
  "sourceName": "contracts/LiskGarden.sol",
  "abi": [
    {
      "inputs": [],
      "stateMutability": "nonpayable",
      "type": "constructor"
    },
    {
      "anonymous": false,
      "inputs": [
        {
          "indexed": true,
          "internalType": "uint256",
          "name": "plantId",
          "type": "uint256"
        }
      ],
      "name": "PlantDied",
      "type": "event"
    },
    {
      "anonymous": false,
      "inputs": [
        {
          "indexed": true,
          "internalType": "uint256",
          "name": "plantId",
          "type": "uint256"
        },
        {
          "indexed": true,
          "internalType": "address",
          "name": "owner",
          "type": "address"
        },
        {
          "indexed": false,
          "internalType": "uint256",
          "name": "reward",
          "type": "uint256"
        }
      ],
      "name": "PlantHarvested",
      "type": "event"
    },
    {
      "anonymous": false,
      "inputs": [
        {
          "indexed": true,
          "internalType": "address",
          "name": "owner",
          "type": "address"
        },
        {
          "indexed": true,
          "internalType": "uint256",
          "name": "plantId",
          "type": "uint256"
        }
      ],
      "name": "PlantSeeded",
      "type": "event"
    },
    {
      "anonymous": false,
      "inputs": [
        {
          "indexed": true,
          "internalType": "uint256",
          "name": "plantId",
          "type": "uint256"
        },
        {
          "indexed": false,
          "internalType": "uint8",
          "name": "newWaterLevel",
          "type": "uint8"
        }
      ],
      "name": "PlantWatered",
      "type": "event"
    },
    {
      "anonymous": false,
      "inputs": [
        {
          "indexed": true,
          "internalType": "uint256",
          "name": "plantId",
          "type": "uint256"
        },
        {
          "indexed": false,
          "internalType": "enum LiskGarden.GrowthStage",
          "name": "newStage",
          "type": "uint8"
        }
      ],
      "name": "StageAdvanced",
      "type": "event"
    },
    {
      "inputs": [],
      "name": "HARVEST_REWARD",
      "outputs": [
        {
          "internalType": "uint256",
          "name": "",
          "type": "uint256"
        }
      ],
      "stateMutability": "view",
      "type": "function"
    },
    {
      "inputs": [],
      "name": "PLANT_PRICE",
      "outputs": [
        {
          "internalType": "uint256",
          "name": "",
          "type": "uint256"
        }
      ],
      "stateMutability": "view",
      "type": "function"
    },
    {
      "inputs": [],
      "name": "STAGE_DURATION",
      "outputs": [
        {
          "internalType": "uint256",
          "name": "",
          "type": "uint256"
        }
      ],
      "stateMutability": "view",
      "type": "function"
    },
    {
      "inputs": [],
      "name": "WATER_DEPLETION_RATE",
      "outputs": [
        {
          "internalType": "uint8",
          "name": "",
          "type": "uint8"
        }
      ],
      "stateMutability": "view",
      "type": "function"
    },
    {
      "inputs": [],
      "name": "WATER_DEPLETION_TIME",
      "outputs": [
        {
          "internalType": "uint8",
          "name": "",
          "type": "uint8"
        }
      ],
      "stateMutability": "view",
      "type": "function"
    },
    {
      "inputs": [
        {
          "internalType": "uint256",
          "name": "plantId",
          "type": "uint256"
        }
      ],
      "name": "calculateWaterLevel",
      "outputs": [
        {
          "internalType": "uint8",
          "name": "",
          "type": "uint8"
        }
      ],
      "stateMutability": "view",
      "type": "function"
    },
    {
      "inputs": [
        {
          "internalType": "uint256",
          "name": "plantId",
          "type": "uint256"
        }
      ],
      "name": "getPlant",
      "outputs": [
        {
          "components": [
            {
              "internalType": "uint256",
              "name": "id",
              "type": "uint256"
            },
            {
              "internalType": "address",
              "name": "owner",
              "type": "address"
            },
            {
              "internalType": "enum LiskGarden.GrowthStage",
              "name": "stage",
              "type": "uint8"
            },
            {
              "internalType": "uint256",
              "name": "plantedDate",
              "type": "uint256"
            },
            {
              "internalType": "uint256",
              "name": "lastWatered",
              "type": "uint256"
            },
            {
              "internalType": "uint8",
              "name": "waterLevel",
              "type": "uint8"
            },
            {
              "internalType": "bool",
              "name": "exists",
              "type": "bool"
            },
            {
              "internalType": "bool",
              "name": "isDead",
              "type": "bool"
            }
          ],
          "internalType": "struct LiskGarden.Plant",
          "name": "",
          "type": "tuple"
        }
      ],
      "stateMutability": "view",
      "type": "function"
    },
    {
      "inputs": [
        {
          "internalType": "address",
          "name": "user",
          "type": "address"
        }
      ],
      "name": "getUserPlants",
      "outputs": [
        {
          "internalType": "uint256[]",
          "name": "",
          "type": "uint256[]"
        }
      ],
      "stateMutability": "view",
      "type": "function"
    },
    {
      "inputs": [
        {
          "internalType": "uint256",
          "name": "plantId",
          "type": "uint256"
        }
      ],
      "name": "harvestPlant",
      "outputs": [],
      "stateMutability": "nonpayable",
      "type": "function"
    },
    {
      "inputs": [],
      "name": "owner",
      "outputs": [
        {
          "internalType": "address",
          "name": "",
          "type": "address"
        }
      ],
      "stateMutability": "view",
      "type": "function"
    },
    {
      "inputs": [
        {
          "internalType": "address",
          "name": "",
          "type": "address"
        },
        {
          "internalType": "uint256",
          "name": "",
          "type": "uint256"
        }
      ],
      "name": "ownerPlants",
      "outputs": [
        {
          "internalType": "uint256",
          "name": "",
          "type": "uint256"
        }
      ],
      "stateMutability": "view",
      "type": "function"
    },
    {
      "inputs": [],
      "name": "plantCounter",
      "outputs": [
        {
          "internalType": "uint256",
          "name": "",
          "type": "uint256"
        }
      ],
      "stateMutability": "view",
      "type": "function"
    },
    {
      "inputs": [],
      "name": "plantSeed",
      "outputs": [
        {
          "internalType": "uint256",
          "name": "",
          "type": "uint256"
        }
      ],
      "stateMutability": "payable",
      "type": "function"
    },
    {
      "inputs": [
        {
          "internalType": "uint256",
          "name": "",
          "type": "uint256"
        }
      ],
      "name": "plants",
      "outputs": [
        {
          "internalType": "uint256",
          "name": "id",
          "type": "uint256"
        },
        {
          "internalType": "address",
          "name": "owner",
          "type": "address"
        },
        {
          "internalType": "enum LiskGarden.GrowthStage",
          "name": "stage",
          "type": "uint8"
        },
        {
          "internalType": "uint256",
          "name": "plantedDate",
          "type": "uint256"
        },
        {
          "internalType": "uint256",
          "name": "lastWatered",
          "type": "uint256"
        },
        {
          "internalType": "uint8",
          "name": "waterLevel",
          "type": "uint8"
        },
        {
          "internalType": "bool",
          "name": "exists",
          "type": "bool"
        },
        {
          "internalType": "bool",
          "name": "isDead",
          "type": "bool"
        }
      ],
      "stateMutability": "view",
      "type": "function"
    },
    {
      "inputs": [
        {
          "internalType": "uint256",
          "name": "plantId",
          "type": "uint256"
        }
      ],
      "name": "updatePlantStage",
      "outputs": [],
      "stateMutability": "nonpayable",
      "type": "function"
    },
    {
      "inputs": [
        {
          "internalType": "uint256",
          "name": "plantId",
          "type": "uint256"
        }
      ],
      "name": "waterPlant",
      "outputs": [],
      "stateMutability": "nonpayable",
      "type": "function"
    },
    {
      "inputs": [],
      "name": "withdraw",
      "outputs": [],
      "stateMutability": "nonpayable",
      "type": "function"
    },
    {
      "stateMutability": "payable",
      "type": "receive"
    }
  ],
  "bytecode": "0x6080604052348015600e575f5ffd5b50600380546001600160a01b031916331790555f600255611127806100325f395ff3fe6080604052600436106100fd575f3560e01c80638da5cb5b11610092578063bacb5ebd11610062578063bacb5ebd146102e9578063cfc9a5f8146102fd578063ddd4259614610317578063e38f844814610336578063ed0b1f5f14610355575f5ffd5b80638da5cb5b146101fb5780638dd2361c146102325780639886bcfa146102b55780639c471749146102d4575f5ffd5b806374119a38116100cd57806374119a3814610194578063754e150d1461019c5780637ed4c5be146101cd578063891c0785146101e1575f5ffd5b806330cec0eb146101085780633ccfd60b1461013d5780634593b9f91461015357806351f9efde14610180575f5ffd5b3661010457005b5f5ffd5b348015610113575f5ffd5b50610127610122366004610e64565b610381565b6040516101349190610e84565b60405180910390f35b348015610148575f5ffd5b506101516103ea565b005b34801561015e575f5ffd5b5061017261016d366004610ec6565b6104c9565b604051908152602001610134565b34801561018b575f5ffd5b50610172603c81565b6101726104f4565b3480156101a7575f5ffd5b506101bb6101b6366004610eee565b61069d565b60405160ff9091168152602001610134565b3480156101d8575f5ffd5b506101bb601e81565b3480156101ec575f5ffd5b50610172660aa87bee53800081565b348015610206575f5ffd5b5060035461021a906001600160a01b031681565b6040516001600160a01b039091168152602001610134565b34801561023d575f5ffd5b506102a161024c366004610eee565b5f602081905290815260409020805460018201546002830154600384015460049094015492936001600160a01b0383169360ff600160a01b909404841693818116916101008104821691620100009091041688565b604051610134989796959493929190610f39565b3480156102c0575f5ffd5b506101516102cf366004610eee565b6107cc565b3480156102df575f5ffd5b5061017260025481565b3480156102f4575f5ffd5b506101bb600281565b348015610308575f5ffd5b5061017266038d7ea4c6800081565b348015610322575f5ffd5b50610151610331366004610eee565b6108ff565b348015610341575f5ffd5b50610151610350366004610eee565b610a9b565b348015610360575f5ffd5b5061037461036f366004610eee565b610cbc565b6040516101349190610f8e565b6001600160a01b0381165f908152600160209081526040918290208054835181840281018401909452808452606093928301828280156103de57602002820191905f5260205f20905b8154815260200190600101908083116103ca575b50505050509050919050565b6003546001600160a01b031633146104395760405162461bcd60e51b815260206004820152600d60248201526c2737ba103a34329027bbb732b960991b60448201526064015b60405180910390fd5b6003546040515f916001600160a01b03169047908381818185875af1925050503d805f8114610483576040519150601f19603f3d011682016040523d82523d5f602084013e610488565b606091505b50509050806104c65760405162461bcd60e51b815260206004820152600a602482015269165bdd4811985a5b195960b21b6044820152606401610430565b50565b6001602052815f5260405f2081815481106104e2575f80fd5b905f5260205f20015f91509150505481565b5f66038d7ea4c680003410156105415760405162461bcd60e51b8152602060048201526012602482015271496e73756666696369656e74204d6f6e657960701b6044820152606401610430565b60028054905f61055083611019565b909155505060025460408051610100810182528281523360208083019182525f83850181815242606086018190526080860152606460a0860152600160c0860181905260e086018390528783529282905294902083518155915190820180546001600160a01b039092166001600160a01b0319831681178255945193948594926001600160a81b03191617600160a01b8360038111156105f2576105f2610f05565b0217905550606082015160028201556080820151600382015560a08201516004909101805460c084015160e0909401511515620100000262ff0000199415156101000261ffff1990921660ff909416939093171792909216179055335f818152600160208181526040808420805493840181558452908320909101859055518492917f4f5b22082ac57121703b0b6c1203ef527cfbfa5069616fee6deb979d124adbf091a350919050565b5f818152602081815260408083208151610100810183528154815260018201546001600160a01b0381169482019490945284939092830190600160a01b900460ff1660038111156106f0576106f0610f05565b600381111561070157610701610f05565b8152600282015460208201526003820154604082015260049091015460ff808216606084015261010082048116151560808401526201000090910416151560a09091015260e08101519091508061075a57508060c00151155b1561076757505f92915050565b5f8160800151426107789190611031565b90505f610786601e8361104a565b90505f610794600283611069565b90508360a0015160ff168160ff16106107b257505f95945050505050565b808460a001516107c29190611085565b9695505050505050565b5f8181526020819052604090206004810154610100900460ff166108025760405162461bcd60e51b81526004016104309061109e565b60018101546001600160a01b0316331461085a5760405162461bcd60e51b8152602060048201526019602482015278596f7520646f206e6f74206f776e2074686520706c616e742160381b6044820152606401610430565b600481015462010000900460ff16156108a55760405162461bcd60e51b815260206004820152600d60248201526c141b185b9d081a5cc819195859609a1b6044820152606401610430565b60048101805460ff1916606490811790915542600383015560405190815282907fd4b742b9ba48fffa1f14267075a7793851770764117c423fd0a6550dfc8cb5749060200160405180910390a26108fb826108ff565b5050565b5f8181526020819052604090206004810154610100900460ff166109355760405162461bcd60e51b81526004016104309061109e565b61093e82610dbc565b600481015462010000900460ff1615610955575050565b5f8160020154426109669190611031565b6001830154909150600160a01b900460ff16610984603c60036110cc565b82106109ac576001830180546003919060ff60a01b1916600160a01b835b0217905550610a15565b6109b8603c60026110cc565b82106109da576001830180546002919060ff60a01b1916600160a01b836109a2565b6109e6603c60016110cc565b8210610a05576001838101805460ff60a01b1916600160a01b836109a2565b60018301805460ff60a01b191690555b806003811115610a2757610a27610f05565b6001840154600160a01b900460ff166003811115610a4757610a47610f05565b14610a9557600183015460405185917f338b8976706f9da67298dddfa1ea4ff7d99cce68b9ca39c4f348994f8e2124a891610a8c91600160a01b900460ff16906110e3565b60405180910390a25b50505050565b5f8181526020819052604090206004810154610100900460ff16610ad15760405162461bcd60e51b81526004016104309061109e565b60018101546001600160a01b03163314610b295760405162461bcd60e51b8152602060048201526019602482015278596f7520646f206e6f74206f776e2074686520706c616e742160381b6044820152606401610430565b600481015462010000900460ff1615610b745760405162461bcd60e51b815260206004820152600d60248201526c141b185b9d081a5cc819195859609a1b6044820152606401610430565b610b7d826108ff565b60036001820154600160a01b900460ff166003811115610b9f57610b9f610f05565b14610bde5760405162461bcd60e51b815260206004820152600f60248201526e139bdd08189b1bdbdb5959081e595d608a1b6044820152606401610430565b60048101805461ff0019169055604051660aa87bee5380008152339083907f79f2138ea100070ff95b59c265da7aa3c7a0f61595fe1bb2f5fda2762f3988479060200160405180910390a36040515f903390660aa87bee538000908381818185875af1925050503d805f8114610c6f576040519150601f19603f3d011682016040523d82523d5f602084013e610c74565b606091505b5050905080610cb75760405162461bcd60e51b815260206004820152600f60248201526e151c985b9cd9995c8811985a5b1959608a1b6044820152606401610430565b505050565b60408051610100810182525f80825260208201819052918101829052606081018290526080810182905260a0810182905260c0810182905260e08101919091525f828152602081815260408083208151610100810183528154815260018201546001600160a01b03811694820194909452929091830190600160a01b900460ff166003811115610d4e57610d4e610f05565b6003811115610d5f57610d5f610f05565b8152600282015460208201526003820154604082015260049091015460ff808216606084015261010082048116151560808401526201000090910416151560a0909101529050610dae8361069d565b60ff1660a082015292915050565b5f81815260208190526040812090610dd38361069d565b60048301805460ff191660ff8316908117909155909150158015610e025750600482015462010000900460ff16155b15610cb75760048201805462ff000019166201000017905560405183907fcc296a21951f3e57f21afb08547d835a0a9f0f06cc2867009cbe0cae44d36be9905f90a2505050565b80356001600160a01b0381168114610e5f575f5ffd5b919050565b5f60208284031215610e74575f5ffd5b610e7d82610e49565b9392505050565b602080825282518282018190525f918401906040840190835b81811015610ebb578351835260209384019390920191600101610e9d565b509095945050505050565b5f5f60408385031215610ed7575f5ffd5b610ee083610e49565b946020939093013593505050565b5f60208284031215610efe575f5ffd5b5035919050565b634e487b7160e01b5f52602160045260245ffd5b60048110610f3557634e487b7160e01b5f52602160045260245ffd5b9052565b8881526001600160a01b03881660208201526101008101610f5d6040830189610f19565b6060820196909652608081019490945260ff9290921660a0840152151560c0830152151560e0909101529392505050565b815181526020808301516001600160a01b031690820152604080830151610100830191610fbd90840182610f19565b50606083015160608301526080830151608083015260ff60a08401511660a083015260c0830151151560c083015260e0830151610ffe60e084018215159052565b5092915050565b634e487b7160e01b5f52601160045260245ffd5b5f6001820161102a5761102a611005565b5060010190565b8181038181111561104457611044611005565b92915050565b5f8261106457634e487b7160e01b5f52601260045260245ffd5b500490565b60ff8181168382160290811690818114610ffe57610ffe611005565b60ff828116828216039081111561104457611044611005565b602080825260149082015273141b185b9d08191bd95cc81b9bdd08195e1a5cdd60621b604082015260600190565b808202811582820484141761104457611044611005565b602081016110448284610f1956fea264697066735822122071e9177322d55611c27da78dba6a513b881ce3972f8defcfbcf5405164329b7264736f6c634300081e0033",
  "linkReferences": {},
  "deployedLinkReferences": {},
  "immutableReferences": {},
  "inputSourceName": "project/contracts/LiskGarden.sol",
  "buildInfoId": "solc-0_8_30-f76289c4d38bb30046d053963d472a399e53b115"
}