{
  "_format": "hh3-artifact-1",
  "contractName": "PlantNFT",
  "sourceName": "contracts/PlantNFT.sol",
  "abi": [
    {
      "inputs": [],
      "stateMutability": "nonpayable",
      "type": "constructor"
    },
    {
      "inputs": [
        {
          "internalType": "address",
          "name": "sender",
          "type": "address"
        },
        {
          "internalType": "uint256",
          "name": "tokenId",
          "type": "uint256"
        },
        {
          "internalType": "address",
          "name": "owner",
          "type": "address"
        }
      ],
      "name": "ERC721IncorrectOwner",
      "type": "error"
    },
    {
      "inputs": [
        {
          "internalType": "address",
          "name": "operator",
          "type": "address"
        },
        {
          "internalType": "uint256",
          "name": "tokenId",
          "type": "uint256"
        }
      ],
      "name": "ERC721InsufficientApproval",
      "type": "error"
    },
    {
      "inputs": [
        {
          "internalType": "address",
          "name": "approver",
          "type": "address"
        }
      ],
      "name": "ERC721InvalidApprover",
      "type": "error"
    },
    {
      "inputs": [
        {
          "internalType": "address",
          "name": "operator",
          "type": "address"
        }
      ],
      "name": "ERC721InvalidOperator",
      "type": "error"
    },
    {
      "inputs": [
        {
          "internalType": "address",
          "name": "owner",
          "type": "address"
        }
      ],
      "name": "ERC721InvalidOwner",
      "type": "error"
    },
    {
      "inputs": [
        {
          "internalType": "address",
          "name": "receiver",
          "type": "address"
        }
      ],
      "name": "ERC721InvalidReceiver",
      "type": "error"
    },
    {
      "inputs": [
        {
          "internalType": "address",
          "name": "sender",
          "type": "address"
        }
      ],
      "name": "ERC721InvalidSender",
      "type": "error"
    },
    {
      "inputs": [
        {
          "internalType": "uint256",
          "name": "tokenId",
          "type": "uint256"
        }
      ],
      "name": "ERC721NonexistentToken",
      "type": "error"
    },
    {
      "inputs": [
        {
          "internalType": "address",
          "name": "owner",
          "type": "address"
        }
      ],
      "name": "OwnableInvalidOwner",
      "type": "error"
    },
    {
      "inputs": [
        {
          "internalType": "address",
          "name": "account",
          "type": "address"
        }
      ],
      "name": "OwnableUnauthorizedAccount",
      "type": "error"
    },
    {
      "anonymous": false,
      "inputs": [
        {
          "indexed": true,
          "internalType": "address",
          "name": "owner",
          "type": "address"
        },
        {
          "indexed": true,
          "internalType": "address",
          "name": "approved",
          "type": "address"
        },
        {
          "indexed": true,
          "internalType": "uint256",
          "name": "tokenId",
          "type": "uint256"
        }
      ],
      "name": "Approval",
      "type": "event"
    },
    {
      "anonymous": false,
      "inputs": [
        {
          "indexed": true,
          "internalType": "address",
          "name": "owner",
          "type": "address"
        },
        {
          "indexed": true,
          "internalType": "address",
          "name": "operator",
          "type": "address"
        },
        {
          "indexed": false,
          "internalType": "bool",
          "name": "approved",
          "type": "bool"
        }
      ],
      "name": "ApprovalForAll",
      "type": "event"
    },
    {
      "anonymous": false,
      "inputs": [
        {
          "indexed": true,
          "internalType": "uint256",
          "name": "tokenId",
          "type": "uint256"
        },
        {
          "indexed": false,
          "internalType": "uint256",
          "name": "itemId",
          "type": "uint256"
        },
        {
          "indexed": false,
          "internalType": "uint256",
          "name": "boost",
          "type": "uint256"
        }
      ],
      "name": "FertilizerUsed",
      "type": "event"
    },
    {
      "anonymous": false,
      "inputs": [
        {
          "indexed": true,
          "internalType": "address",
          "name": "previousOwner",
          "type": "address"
        },
        {
          "indexed": true,
          "internalType": "address",
          "name": "newOwner",
          "type": "address"
        }
      ],
      "name": "OwnershipTransferred",
      "type": "event"
    },
    {
      "anonymous": false,
      "inputs": [
        {
          "indexed": true,
          "internalType": "uint256",
          "name": "tokenId",
          "type": "uint256"
        },
        {
          "indexed": false,
          "internalType": "uint256",
          "name": "newStage",
          "type": "uint256"
        }
      ],
      "name": "PlantGrown",
      "type": "event"
    },
    {
      "anonymous": false,
      "inputs": [
        {
          "indexed": true,
          "internalType": "uint256",
          "name": "tokenId",
          "type": "uint256"
        },
        {
          "indexed": true,
          "internalType": "address",
          "name": "owner",
          "type": "address"
        },
        {
          "indexed": false,
          "internalType": "uint256",
          "name": "reward",
          "type": "uint256"
        }
      ],
      "name": "PlantHarvested",
      "type": "event"
    },
    {
      "anonymous": false,
      "inputs": [
        {
          "indexed": true,
          "internalType": "uint256",
          "name": "tokenId",
          "type": "uint256"
        },
        {
          "indexed": true,
          "internalType": "address",
          "name": "owner",
          "type": "address"
        },
        {
          "indexed": false,
          "internalType": "string",
          "name": "species",
          "type": "string"
        },
        {
          "indexed": false,
          "internalType": "uint8",
          "name": "rarity",
          "type": "uint8"
        }
      ],
      "name": "PlantMinted",
      "type": "event"
    },
    {
      "anonymous": false,
      "inputs": [
        {
          "indexed": true,
          "internalType": "uint256",
          "name": "tokenId",
          "type": "uint256"
        },
        {
          "indexed": false,
          "internalType": "uint256",
          "name": "timestamp",
          "type": "uint256"
        }
      ],
      "name": "PlantWatered",
      "type": "event"
    },
    {
      "anonymous": false,
      "inputs": [
        {
          "indexed": true,
          "internalType": "address",
          "name": "from",
          "type": "address"
        },
        {
          "indexed": true,
          "internalType": "address",
          "name": "to",
          "type": "address"
        },
        {
          "indexed": true,
          "internalType": "uint256",
          "name": "tokenId",
          "type": "uint256"
        }
      ],
      "name": "Transfer",
      "type": "event"
    },
    {
      "inputs": [],
      "name": "HARVEST_COOLDOWN",
      "outputs": [
        {
          "internalType": "uint256",
          "name": "",
          "type": "uint256"
        }
      ],
      "stateMutability": "view",
      "type": "function"
    },
    {
      "inputs": [],
      "name": "MINT_COST",
      "outputs": [
        {
          "internalType": "uint256",
          "name": "",
          "type": "uint256"
        }
      ],
      "stateMutability": "view",
      "type": "function"
    },
    {
      "inputs": [],
      "name": "STAGE_DURATION",
      "outputs": [
        {
          "internalType": "uint256",
          "name": "",
          "type": "uint256"
        }
      ],
      "stateMutability": "view",
      "type": "function"
    },
    {
      "inputs": [],
      "name": "WATERINGS_PER_STAGE",
      "outputs": [
        {
          "internalType": "uint256",
          "name": "",
          "type": "uint256"
        }
      ],
      "stateMutability": "view",
      "type": "function"
    },
    {
      "inputs": [],
      "name": "WATER_COOLDOWN",
      "outputs": [
        {
          "internalType": "uint256",
          "name": "",
          "type": "uint256"
        }
      ],
      "stateMutability": "view",
      "type": "function"
    },
    {
      "inputs": [
        {
          "internalType": "address",
          "name": "to",
          "type": "address"
        },
        {
          "internalType": "uint256",
          "name": "tokenId",
          "type": "uint256"
        }
      ],
      "name": "approve",
      "outputs": [],
      "stateMutability": "nonpayable",
      "type": "function"
    },
    {
      "inputs": [
        {
          "internalType": "address",
          "name": "owner",
          "type": "address"
        }
      ],
      "name": "balanceOf",
      "outputs": [
        {
          "internalType": "uint256",
          "name": "",
          "type": "uint256"
        }
      ],
      "stateMutability": "view",
      "type": "function"
    },
    {
      "inputs": [
        {
          "internalType": "uint256",
          "name": "tokenId",
          "type": "uint256"
        }
      ],
      "name": "calculateReward",
      "outputs": [
        {
          "internalType": "uint256",
          "name": "",
          "type": "uint256"
        }
      ],
      "stateMutability": "view",
      "type": "function"
    },
    {
      "inputs": [
        {
          "internalType": "uint256",
          "name": "tokenId",
          "type": "uint256"
        }
      ],
      "name": "canGrow",
      "outputs": [
        {
          "internalType": "bool",
          "name": "",
          "type": "bool"
        }
      ],
      "stateMutability": "view",
      "type": "function"
    },
    {
      "inputs": [
        {
          "internalType": "uint256",
          "name": "tokenId",
          "type": "uint256"
        }
      ],
      "name": "canHarvest",
      "outputs": [
        {
          "internalType": "bool",
          "name": "",
          "type": "bool"
        }
      ],
      "stateMutability": "view",
      "type": "function"
    },
    {
      "inputs": [],
      "name": "gameContract",
      "outputs": [
        {
          "internalType": "address",
          "name": "",
          "type": "address"
        }
      ],
      "stateMutability": "view",
      "type": "function"
    },
    {
      "inputs": [],
      "name": "gameItems",
      "outputs": [
        {
          "internalType": "contract IGameItems",
          "name": "",
          "type": "address"
        }
      ],
      "stateMutability": "view",
      "type": "function"
    },
    {
      "inputs": [],
      "name": "gameItemsContract",
      "outputs": [
        {
          "internalType": "address",
          "name": "",
          "type": "address"
        }
      ],
      "stateMutability": "view",
      "type": "function"
    },
    {
      "inputs": [],
      "name": "gardenToken",
      "outputs": [
        {
          "internalType": "contract IGardenToken",
          "name": "",
          "type": "address"
        }
      ],
      "stateMutability": "view",
      "type": "function"
    },
    {
      "inputs": [
        {
          "internalType": "uint256",
          "name": "tokenId",
          "type": "uint256"
        }
      ],
      "name": "getApproved",
      "outputs": [
        {
          "internalType": "address",
          "name": "",
          "type": "address"
        }
      ],
      "stateMutability": "view",
      "type": "function"
    },
    {
      "inputs": [
        {
          "internalType": "uint256",
          "name": "tokenId",
          "type": "uint256"
        }
      ],
      "name": "getPlant",
      "outputs": [
        {
          "components": [
            {
              "internalType": "string",
              "name": "name",
              "type": "string"
            },
            {
              "internalType": "string",
              "name": "species",
              "type": "string"
            },
            {
              "internalType": "uint256",
              "name": "plantedAt",
              "type": "uint256"
            },
            {
              "internalType": "uint8",
              "name": "rarity",
              "type": "uint8"
            },
            {
              "internalType": "uint256",
              "name": "lastWatered",
              "type": "uint256"
            },
            {
              "internalType": "uint256",
              "name": "growthStage",
              "type": "uint256"
            },
            {
              "internalType": "uint256",
              "name": "waterCount",
              "type": "uint256"
            },
            {
              "internalType": "bool",
              "name": "harvested",
              "type": "bool"
            }
          ],
          "internalType": "struct PlantNFT.PlantMetaData",
          "name": "",
          "type": "tuple"
        }
      ],
      "stateMutability": "view",
      "type": "function"
    },
    {
      "inputs": [
        {
          "internalType": "address",
          "name": "owner",
          "type": "address"
        }
      ],
      "name": "getPlantsOfOwner",
      "outputs": [
        {
          "internalType": "uint256[]",
          "name": "",
          "type": "uint256[]"
        }
      ],
      "stateMutability": "view",
      "type": "function"
    },
    {
      "inputs": [
        {
          "internalType": "uint256",
          "name": "tokenId",
          "type": "uint256"
        }
      ],
      "name": "getTimeUntilHarvest",
      "outputs": [
        {
          "internalType": "uint256",
          "name": "",
          "type": "uint256"
        }
      ],
      "stateMutability": "view",
      "type": "function"
    },
    {
      "inputs": [
        {
          "internalType": "uint256",
          "name": "tokenId",
          "type": "uint256"
        }
      ],
      "name": "getTimeUntilWater",
      "outputs": [
        {
          "internalType": "uint256",
          "name": "",
          "type": "uint256"
        }
      ],
      "stateMutability": "view",
      "type": "function"
    },
    {
      "inputs": [
        {
          "internalType": "uint256",
          "name": "tokenId",
          "type": "uint256"
        }
      ],
      "name": "growPlant",
      "outputs": [],
      "stateMutability": "nonpayable",
      "type": "function"
    },
    {
      "inputs": [
        {
          "internalType": "uint256",
          "name": "",
          "type": "uint256"
        }
      ],
      "name": "growthBoost",
      "outputs": [
        {
          "internalType": "uint256",
          "name": "",
          "type": "uint256"
        }
      ],
      "stateMutability": "view",
      "type": "function"
    },
    {
      "inputs": [
        {
          "internalType": "uint256",
          "name": "tokenId",
          "type": "uint256"
        }
      ],
      "name": "harvestPlant",
      "outputs": [],
      "stateMutability": "nonpayable",
      "type": "function"
    },
    {
      "inputs": [
        {
          "internalType": "address",
          "name": "owner",
          "type": "address"
        },
        {
          "internalType": "address",
          "name": "operator",
          "type": "address"
        }
      ],
      "name": "isApprovedForAll",
      "outputs": [
        {
          "internalType": "bool",
          "name": "",
          "type": "bool"
        }
      ],
      "stateMutability": "view",
      "type": "function"
    },
    {
      "inputs": [
        {
          "internalType": "uint256",
          "name": "",
          "type": "uint256"
        }
      ],
      "name": "lastGrowthTime",
      "outputs": [
        {
          "internalType": "uint256",
          "name": "",
          "type": "uint256"
        }
      ],
      "stateMutability": "view",
      "type": "function"
    },
    {
      "inputs": [
        {
          "internalType": "uint256",
          "name": "",
          "type": "uint256"
        }
      ],
      "name": "lastHarvestTime",
      "outputs": [
        {
          "internalType": "uint256",
          "name": "",
          "type": "uint256"
        }
      ],
      "stateMutability": "view",
      "type": "function"
    },
    {
      "inputs": [
        {
          "internalType": "string",
          "name": "name",
          "type": "string"
        },
        {
          "internalType": "string",
          "name": "species",
          "type": "string"
        }
      ],
      "name": "mintPlant",
      "outputs": [
        {
          "internalType": "uint256",
          "name": "",
          "type": "uint256"
        }
      ],
      "stateMutability": "payable",
      "type": "function"
    },
    {
      "inputs": [
        {
          "internalType": "address",
          "name": "to",
          "type": "address"
        },
        {
          "internalType": "string",
          "name": "name",
          "type": "string"
        },
        {
          "internalType": "string",
          "name": "species",
          "type": "string"
        },
        {
          "internalType": "uint8",
          "name": "rarity",
          "type": "uint8"
        }
      ],
      "name": "mintPlantCustom",
      "outputs": [
        {
          "internalType": "uint256",
          "name": "",
          "type": "uint256"
        }
      ],
      "stateMutability": "nonpayable",
      "type": "function"
    },
    {
      "inputs": [],
      "name": "name",
      "outputs": [
        {
          "internalType": "string",
          "name": "",
          "type": "string"
        }
      ],
      "stateMutability": "view",
      "type": "function"
    },
    {
      "inputs": [],
      "name": "owner",
      "outputs": [
        {
          "internalType": "address",
          "name": "",
          "type": "address"
        }
      ],
      "stateMutability": "view",
      "type": "function"
    },
    {
      "inputs": [
        {
          "internalType": "uint256",
          "name": "tokenId",
          "type": "uint256"
        }
      ],
      "name": "ownerOf",
      "outputs": [
        {
          "internalType": "address",
          "name": "",
          "type": "address"
        }
      ],
      "stateMutability": "view",
      "type": "function"
    },
    {
      "inputs": [
        {
          "internalType": "uint256",
          "name": "",
          "type": "uint256"
        }
      ],
      "name": "plants",
      "outputs": [
        {
          "internalType": "string",
          "name": "name",
          "type": "string"
        },
        {
          "internalType": "string",
          "name": "species",
          "type": "string"
        },
        {
          "internalType": "uint256",
          "name": "plantedAt",
          "type": "uint256"
        },
        {
          "internalType": "uint8",
          "name": "rarity",
          "type": "uint8"
        },
        {
          "internalType": "uint256",
          "name": "lastWatered",
          "type": "uint256"
        },
        {
          "internalType": "uint256",
          "name": "growthStage",
          "type": "uint256"
        },
        {
          "internalType": "uint256",
          "name": "waterCount",
          "type": "uint256"
        },
        {
          "internalType": "bool",
          "name": "harvested",
          "type": "bool"
        }
      ],
      "stateMutability": "view",
      "type": "function"
    },
    {
      "inputs": [],
      "name": "renounceOwnership",
      "outputs": [],
      "stateMutability": "nonpayable",
      "type": "function"
    },
    {
      "inputs": [
        {
          "internalType": "address",
          "name": "from",
          "type": "address"
        },
        {
          "internalType": "address",
          "name": "to",
          "type": "address"
        },
        {
          "internalType": "uint256",
          "name": "tokenId",
          "type": "uint256"
        }
      ],
      "name": "safeTransferFrom",
      "outputs": [],
      "stateMutability": "nonpayable",
      "type": "function"
    },
    {
      "inputs": [
        {
          "internalType": "address",
          "name": "from",
          "type": "address"
        },
        {
          "internalType": "address",
          "name": "to",
          "type": "address"
        },
        {
          "internalType": "uint256",
          "name": "tokenId",
          "type": "uint256"
        },
        {
          "internalType": "bytes",
          "name": "data",
          "type": "bytes"
        }
      ],
      "name": "safeTransferFrom",
      "outputs": [],
      "stateMutability": "nonpayable",
      "type": "function"
    },
    {
      "inputs": [
        {
          "internalType": "address",
          "name": "operator",
          "type": "address"
        },
        {
          "internalType": "bool",
          "name": "approved",
          "type": "bool"
        }
      ],
      "name": "setApprovalForAll",
      "outputs": [],
      "stateMutability": "nonpayable",
      "type": "function"
    },
    {
      "inputs": [
        {
          "internalType": "address",
          "name": "_gameContract",
          "type": "address"
        }
      ],
      "name": "setGameContract",
      "outputs": [],
      "stateMutability": "nonpayable",
      "type": "function"
    },
    {
      "inputs": [
        {
          "internalType": "address",
          "name": "_gameItems",
          "type": "address"
        }
      ],
      "name": "setGameItems",
      "outputs": [],
      "stateMutability": "nonpayable",
      "type": "function"
    },
    {
      "inputs": [
        {
          "internalType": "address",
          "name": "_gardenToken",
          "type": "address"
        }
      ],
      "name": "setGardenToken",
      "outputs": [],
      "stateMutability": "nonpayable",
      "type": "function"
    },
    {
      "inputs": [
        {
          "internalType": "bytes4",
          "name": "interfaceId",
          "type": "bytes4"
        }
      ],
      "name": "supportsInterface",
      "outputs": [
        {
          "internalType": "bool",
          "name": "",
          "type": "bool"
        }
      ],
      "stateMutability": "view",
      "type": "function"
    },
    {
      "inputs": [],
      "name": "symbol",
      "outputs": [
        {
          "internalType": "string",
          "name": "",
          "type": "string"
        }
      ],
      "stateMutability": "view",
      "type": "function"
    },
    {
      "inputs": [
        {
          "internalType": "uint256",
          "name": "tokenId",
          "type": "uint256"
        }
      ],
      "name": "tokenURI",
      "outputs": [
        {
          "internalType": "string",
          "name": "",
          "type": "string"
        }
      ],
      "stateMutability": "view",
      "type": "function"
    },
    {
      "inputs": [
        {
          "internalType": "address",
          "name": "from",
          "type": "address"
        },
        {
          "internalType": "address",
          "name": "to",
          "type": "address"
        },
        {
          "internalType": "uint256",
          "name": "tokenId",
          "type": "uint256"
        }
      ],
      "name": "transferFrom",
      "outputs": [],
      "stateMutability": "nonpayable",
      "type": "function"
    },
    {
      "inputs": [
        {
          "internalType": "address",
          "name": "newOwner",
          "type": "address"
        }
      ],
      "name": "transferOwnership",
      "outputs": [],
      "stateMutability": "nonpayable",
      "type": "function"
    },
    {
      "inputs": [
        {
          "internalType": "uint256",
          "name": "plantId",
          "type": "uint256"
        },
        {
          "internalType": "uint256",
          "name": "itemId",
          "type": "uint256"
        }
      ],
      "name": "useFertilizer",
      "outputs": [],
      "stateMutability": "nonpayable",
      "type": "function"
    },
    {
      "inputs": [
        {
          "internalType": "uint256",
          "name": "plantId",
          "type": "uint256"
        },
        {
          "internalType": "uint256",
          "name": "itemId",
          "type": "uint256"
        }
      ],
      "name": "useItemOnPlant",
      "outputs": [],
      "stateMutability": "nonpayable",
      "type": "function"
    },
    {
      "inputs": [
        {
          "internalType": "uint256",
          "name": "",
          "type": "uint256"
        }
      ],
      "name": "waterCount",
      "outputs": [
        {
          "internalType": "uint256",
          "name": "",
          "type": "uint256"
        }
      ],
      "stateMutability": "view",
      "type": "function"
    },
    {
      "inputs": [
        {
          "internalType": "uint256",
          "name": "tokenId",
          "type": "uint256"
        }
      ],
      "name": "waterPlant",
      "outputs": [],
      "stateMutability": "nonpayable",
      "type": "function"
    }
  ],
  "bytecode": "0x608060405234801561000f575f5ffd5b503360405180604001604052806011815260200170131a5cdac811d85c99195b88141b185b9d607a1b81525060405180604001604052806005815260200164141310539560da1b815250815f9081610067919061019c565b506001610074828261019c565b5050506001600160a01b0381166100a457604051631e4fbdf760e01b81525f600482015260240160405180910390fd5b6100ad816100b3565b50610256565b600680546001600160a01b038381166001600160a01b0319831681179093556040519116919082907f8be0079c531659141344cd1fd0a4f28419497f9722a3daafe3b4186f6b6457e0905f90a35050565b634e487b7160e01b5f52604160045260245ffd5b600181811c9082168061012c57607f821691505b60208210810361014a57634e487b7160e01b5f52602260045260245ffd5b50919050565b601f82111561019757805f5260205f20601f840160051c810160208510156101755750805b601f840160051c820191505b81811015610194575f8155600101610181565b50505b505050565b81516001600160401b038111156101b5576101b5610104565b6101c9816101c38454610118565b84610150565b6020601f8211600181146101fb575f83156101e45750848201515b5f19600385901b1c1916600184901b178455610194565b5f84815260208120601f198516915b8281101561022a578785015182556020948501946001909201910161020a565b508482101561024757868401515f19600387901b60f8161c191681555b50505050600190811b01905550565b6137eb806102635f395ff3fe608060405260043610610280575f3560e01c806395d89b4111610155578063d5d0c0a2116100be578063e985e9c511610078578063e985e9c5146107c4578063ed0b1f5f146107e3578063f0b7c59d146104b9578063f14af0f61461080f578063f2fde38b1461082e578063ff7979931461084d575f5ffd5b8063d5d0c0a214610720578063da1abb8214610733578063db61d65c14610752578063e24432a114610771578063e303d87d14610790578063e38f8448146107a5575f5ffd5b8063c53b82581161010f578063c53b825814610676578063c662e4811461068a578063c87b56dd146106a4578063d2d7231f146106c3578063d3f33009146106e2578063d507609314610701575f5ffd5b806395d89b41146105c75780639886bcfa146105db578063a22cb465146105fa578063b709b7fd14610619578063b7be8ad614610638578063b88d4fde14610657575f5ffd5b806342842e0e116101f75780636352211e116101b15780636352211e146104fa57806370a0823114610519578063715018a6146105385780638227bf521461054c5780638da5cb5b146105775780638dd2361c14610594575f5ffd5b806342842e0e14610425578063497bbaaf146104445780635031586b1461046f578063507a2d801461049a57806351f9efde146104b95780635bbb3f7a146104cf575f5ffd5b80630e4981f0116102485780630e4981f0146103505780631306a45b1461036f578063205ca87b1461039c57806323b872dd146103c857806332bda1d1146103e7578063405ebd4d14610406575f5ffd5b806301ffc9a71461028457806306fdde03146102b8578063081812fc146102d9578063095ea7b3146103105780630b67772f14610331575b5f5ffd5b34801561028f575f5ffd5b506102a361029e366004612fc7565b61086c565b60405190151581526020015b60405180910390f35b3480156102c3575f5ffd5b506102cc6108bd565b6040516102af9190613010565b3480156102e4575f5ffd5b506102f86102f3366004613022565b61094c565b6040516001600160a01b0390911681526020016102af565b34801561031b575f5ffd5b5061032f61032a366004613054565b610973565b005b34801561033c575f5ffd5b506010546102f8906001600160a01b031681565b34801561035b575f5ffd5b506102a361036a366004613022565b610982565b34801561037a575f5ffd5b5061038e610389366004613022565b610bb9565b6040519081526020016102af565b3480156103a7575f5ffd5b506103bb6103b636600461307c565b610bf7565b6040516102af9190613095565b3480156103d3575f5ffd5b5061032f6103e23660046130d7565b610cb6565b3480156103f2575f5ffd5b5061032f610401366004613111565b610d44565b348015610411575f5ffd5b5061032f61042036600461307c565b610f4e565b348015610430575f5ffd5b5061032f61043f3660046130d7565b610f9e565b34801561044f575f5ffd5b5061038e61045e366004613022565b600f6020525f908152604090205481565b34801561047a575f5ffd5b5061038e610489366004613022565b600c6020525f908152604090205481565b3480156104a5575f5ffd5b5061038e6104b43660046131da565b610fbd565b3480156104c4575f5ffd5b5061038e6201518081565b3480156104da575f5ffd5b5061038e6104e9366004613022565b600d6020525f908152604090205481565b348015610505575f5ffd5b506102f8610514366004613022565b611199565b348015610524575f5ffd5b5061038e61053336600461307c565b6111a3565b348015610543575f5ffd5b5061032f6111e8565b348015610557575f5ffd5b5061038e610566366004613022565b600e6020525f908152604090205481565b348015610582575f5ffd5b506006546001600160a01b03166102f8565b34801561059f575f5ffd5b506105b36105ae366004613022565b6111fb565b6040516102af989796959493929190613266565b3480156105d2575f5ffd5b506102cc61134e565b3480156105e6575f5ffd5b5061032f6105f5366004613022565b61135d565b348015610605575f5ffd5b5061032f6106143660046132c4565b6114b0565b348015610624575f5ffd5b5061032f61063336600461307c565b6114bb565b348015610643575f5ffd5b5061032f61065236600461307c565b61150b565b348015610662575f5ffd5b5061032f6106713660046132fd565b611565565b348015610681575f5ffd5b5061038e600381565b348015610695575f5ffd5b5061038e66038d7ea4c6800081565b3480156106af575f5ffd5b506102cc6106be366004613022565b61157d565b3480156106ce575f5ffd5b5061038e6106dd366004613022565b6115ed565b3480156106ed575f5ffd5b506008546102f8906001600160a01b031681565b34801561070c575f5ffd5b50600a546102f8906001600160a01b031681565b61038e61072e366004613374565b611780565b34801561073e575f5ffd5b5061038e61074d366004613022565b6119c1565b34801561075d575f5ffd5b506009546102f8906001600160a01b031681565b34801561077c575f5ffd5b5061032f61078b366004613111565b611b7b565b34801561079b575f5ffd5b5061038e61708081565b3480156107b0575f5ffd5b5061032f6107bf366004613022565b611ed3565b3480156107cf575f5ffd5b506102a36107de3660046133d9565b61224e565b3480156107ee575f5ffd5b506108026107fd366004613022565b61227b565b6040516102af919061340a565b34801561081a575f5ffd5b5061032f610829366004613022565b61249d565b348015610839575f5ffd5b5061032f61084836600461307c565b61252e565b348015610858575f5ffd5b506102a3610867366004613022565b612568565b5f6001600160e01b031982166380ac58cd60e01b148061089c57506001600160e01b03198216635b5e139f60e01b145b806108b757506301ffc9a760e01b6001600160e01b03198316145b92915050565b60605f80546108cb90613490565b80601f01602080910402602001604051908101604052809291908181526020018280546108f790613490565b80156109425780601f1061091957610100808354040283529160200191610942565b820191905f5260205f20905b81548152906001019060200180831161092557829003601f168201915b5050505050905090565b5f61095682612725565b505f828152600460205260409020546001600160a01b03166108b7565b61097e82823361275d565b5050565b5f818152600b602052604080822081516101008101909252805483929190829082906109ad90613490565b80601f01602080910402602001604051908101604052809291908181526020018280546109d990613490565b8015610a245780601f106109fb57610100808354040283529160200191610a24565b820191905f5260205f20905b815481529060010190602001808311610a0757829003601f168201915b50505050508152602001600182018054610a3d90613490565b80601f0160208091040260200160405190810160405280929190818152602001828054610a6990613490565b8015610ab45780601f10610a8b57610100808354040283529160200191610ab4565b820191905f5260205f20905b815481529060010190602001808311610a9757829003601f168201915b50505091835250506002820154602082015260038083015460ff90811660408401526004840154606084015260058401546080840152600684015460a08085019190915260079094015416151560c0909201919091529082015191925011610b1e57505f92915050565b5f838152600c6020526040812054610b3990620151806134f0565b9050808260a001516001610b4d9190613503565b610b579190613516565b6040830151610b66904261352d565b1015610b7557505f9392505050565b60038260a001516001610b889190613503565b610b929190613516565b5f858152600d60205260409020541015610baf57505f9392505050565b5060019392505050565b5f818152600f60205260408120548190610bd7906201518090613503565b9050428111610be6575f610bf0565b610bf0428261352d565b9392505050565b60605f610c03836111a3565b90505f8167ffffffffffffffff811115610c1f57610c1f613131565b604051908082528060200260200182016040528015610c48578160200160208202803683370190505b5090505f805b600754811015610cac575f818152600260205260409020546001600160a01b03878116911603610ca45780838381518110610c8b57610c8b613540565b602090810291909101015281610ca081613554565b9250505b600101610c4e565b5090949350505050565b6001600160a01b038216610ce457604051633250574960e11b81525f60048201526024015b60405180910390fd5b5f610cf083833361276a565b9050836001600160a01b0316816001600160a01b031614610d3e576040516364283d7b60e01b81526001600160a01b0380861660048301526024820184905282166044820152606401610cdb565b50505050565b33610d4e83611199565b6001600160a01b031614610d745760405162461bcd60e51b8152600401610cdb9061356c565b600a546001600160a01b0316610dc05760405162461bcd60e51b815260206004820152601160248201527011d85b59525d195b5cc81b9bdd081cd95d607a1b6044820152606401610cdb565b600a54604051627eeac760e11b8152336004820152602481018390525f916001600160a01b03169062fdd58e90604401602060405180830381865afa158015610e0b573d5f5f3e3d5ffd5b505050506040513d601f19601f82011682018060405250810190610e2f919061358f565b11610e665760405162461bcd60e51b81526020600482015260076024820152664e6f206974656d60c81b6044820152606401610cdb565b5f828152600b6020526040902060050154600311610e965760405162461bcd60e51b8152600401610cdb906135a6565b600a54604051637a94c56560e11b815233600482015260248101839052600160448201526001600160a01b039091169063f5298aca906064015f604051808303815f87803b158015610ee6575f5ffd5b505af1158015610ef8573d5f5f3e3d5ffd5b5050505f838152600c60209081526040918290206002908190558251858152918201528492507f2eb1c847501d38e9a173c73d73a6571e66e8b3d2b8d765c48495fe447fec6beb91015b60405180910390a25050565b610f5661285c565b6001600160a01b038116610f7c5760405162461bcd60e51b8152600401610cdb906135d4565b600880546001600160a01b0319166001600160a01b0392909216919091179055565b610fb883838360405180602001604052805f815250611565565b505050565b5f610fc661285c565b6001600160a01b038516610fec5760405162461bcd60e51b8152600401610cdb906135d4565b60018260ff1610158015611004575060058260ff1611155b6110415760405162461bcd60e51b815260206004820152600e60248201526d496e76616c69642072617269747960901b6044820152606401610cdb565b600780545f918261105183613554565b9190505590506110618682612889565b604080516101008101825286815260208082018790524282840181905260ff8716606084015260808301525f60a0830181905260c0830181905260e08301819052848152600b90915291909120815181906110bc9082613641565b50602082015160018201906110d19082613641565b506040828101516002830155606083015160038301805460ff90921660ff199283161790556080840151600484015560a0840151600584015560c0840151600684015560e0909301516007909201805492151592909316919091179091555f828152600d6020908152828220829055600c905281902060019055516001600160a01b0387169082907fd2e482a197544e7c0c93e6c807e835e8956d80d5fb16f99ccfa3891d158642b49061118890889088906136fc565b60405180910390a395945050505050565b5f6108b782612725565b5f6001600160a01b0382166111cd576040516322718ad960e21b81525f6004820152602401610cdb565b506001600160a01b03165f9081526003602052604090205490565b6111f061285c565b6111f95f6128ea565b565b600b6020525f908152604090208054819061121590613490565b80601f016020809104026020016040519081016040528092919081815260200182805461124190613490565b801561128c5780601f106112635761010080835404028352916020019161128c565b820191905f5260205f20905b81548152906001019060200180831161126f57829003601f168201915b5050505050908060010180546112a190613490565b80601f01602080910402602001604051908101604052809291908181526020018280546112cd90613490565b80156113185780601f106112ef57610100808354040283529160200191611318565b820191905f5260205f20905b8154815290600101906020018083116112fb57829003601f168201915b505050600284015460038501546004860154600587015460068801546007909801549697939660ff938416965091945092911688565b6060600180546108cb90613490565b3361136782611199565b6001600160a01b03161461138d5760405162461bcd60e51b8152600401610cdb9061356c565b5f818152600b6020526040902060048101546113ac9061708090613503565b4210156113fb5760405162461bcd60e51b815260206004820152601f60248201527f576174657220636f6f6c646f776e2061637469766520283820686f75727329006044820152606401610cdb565b600381600501541061141f5760405162461bcd60e51b8152600401610cdb906135a6565b4281600401819055506001816006015f82825461143c9190613503565b90915550505f828152600d6020526040812080546001929061145f908490613503565b909155505060405142815282907ffa682feb3090180eda377672ba020dae237bd124aee1085e233d47762b7e4e819060200160405180910390a26114a282610982565b1561097e5761097e8261293b565b61097e3383836129a7565b6114c361285c565b6001600160a01b0381166114e95760405162461bcd60e51b8152600401610cdb906135d4565b600980546001600160a01b0319166001600160a01b0392909216919091179055565b61151361285c565b6001600160a01b0381166115395760405162461bcd60e51b8152600401610cdb906135d4565b600a80546001600160a01b039092166001600160a01b0319928316811790915560108054909216179055565b611570848484610cb6565b610d3e3385858585612a3d565b606061158882612725565b505f61159e60408051602081019091525f815290565b90505f8151116115bc5760405180602001604052805f815250610bf0565b806115c684612b65565b6040516020016115d7929190613737565b6040516020818303038152906040529392505050565b5f818152600b6020526040808220815161010081019092528054839291908290829061161890613490565b80601f016020809104026020016040519081016040528092919081815260200182805461164490613490565b801561168f5780601f106116665761010080835404028352916020019161168f565b820191905f5260205f20905b81548152906001019060200180831161167257829003601f168201915b505050505081526020016001820180546116a890613490565b80601f01602080910402602001604051908101604052809291908181526020018280546116d490613490565b801561171f5780601f106116f65761010080835404028352916020019161171f565b820191905f5260205f20905b81548152906001019060200180831161170257829003601f168201915b505050918352505060028201546020820152600382015460ff9081166040830152600483015460608084019190915260058401546080840152600684015460a084015260079093015416151560c090910152810151909150610bf090612bf6565b5f66038d7ea4c680003410156117cf5760405162461bcd60e51b8152602060048201526014602482015273125b9cdd59999a58da595b9d081c185e5b595b9d60621b6044820152606401610cdb565b5f8351116118165760405162461bcd60e51b81526020600482015260146024820152734e616d652063616e6e6f7420626520656d70747960601b6044820152606401610cdb565b5f8251116118665760405162461bcd60e51b815260206004820152601760248201527f537065636965732063616e6e6f7420626520656d7074790000000000000000006044820152606401610cdb565b5f61186f612c6e565b600780549192505f91908261188383613554565b9190505590506118933382612889565b604080516101008101825286815260208082018790524282840181905260ff8616606084015260808301525f60a0830181905260c0830181905260e08301819052848152600b90915291909120815181906118ee9082613641565b50602082015160018201906119039082613641565b506040828101516002830155606083015160038301805460ff90921660ff199283161790556080840151600484015560a0840151600584015560c0840151600684015560e0909301516007909201805492151592909316919091179091555f828152600d6020908152828220829055600c90528190206001905551339082907fd2e482a197544e7c0c93e6c807e835e8956d80d5fb16f99ccfa3891d158642b4906119b190889087906136fc565b60405180910390a3949350505050565b5f818152600b602052604080822081516101008101909252805483929190829082906119ec90613490565b80601f0160208091040260200160405190810160405280929190818152602001828054611a1890613490565b8015611a635780601f10611a3a57610100808354040283529160200191611a63565b820191905f5260205f20905b815481529060010190602001808311611a4657829003601f168201915b50505050508152602001600182018054611a7c90613490565b80601f0160208091040260200160405190810160405280929190818152602001828054611aa890613490565b8015611af35780601f10611aca57610100808354040283529160200191611af3565b820191905f5260205f20905b815481529060010190602001808311611ad657829003601f168201915b505050918352505060028201546020820152600382015460ff9081166040830152600483015460608301526005830154608080840191909152600684015460a084015260079093015416151560c0909101528101519091505f90611b5a9061708090613503565b9050428111611b69575f611b73565b611b73428261352d565b949350505050565b33611b8583611199565b6001600160a01b031614611bcd5760405162461bcd60e51b815260206004820152600f60248201526e2737ba10383630b73a1037bbb732b960891b6044820152606401610cdb565b600a546001600160a01b0316611c255760405162461bcd60e51b815260206004820152601a60248201527f47616d654974656d7320636f6e7472616374206e6f74207365740000000000006044820152606401610cdb565b600a54604051627eeac760e11b8152336004820152602481018390525f916001600160a01b03169062fdd58e90604401602060405180830381865afa158015611c70573d5f5f3e3d5ffd5b505050506040513d601f19601f82011682018060405250810190611c94919061358f565b11611ce15760405162461bcd60e51b815260206004820152601960248201527f496e73756666696369656e74206974656d2062616c616e6365000000000000006044820152606401610cdb565b5f828152600b602052604090206001829003611d6d576003816005015410611d1b5760405162461bcd60e51b8152600401610cdb906135a6565b5f838152600c602090815260409182902060029081905582518581529182015284917f2eb1c847501d38e9a173c73d73a6571e66e8b3d2b8d765c48495fe447fec6beb910160405180910390a2611e68565b81600203611ddb576003816005015410611d995760405162461bcd60e51b8152600401610cdb906135a6565b6002816006015f828254611dad9190613503565b90915550505f838152600d60205260408120805460029290611dd0908490613503565b90915550611e689050565b81600303611e3357600381600501546001611df69190613503565b611e009190613516565b5f848152600d602052604090205410801590611e20575060038160050154105b15611e2e57611e2e8361293b565b611e68565b5f838152600c6020526040902054606490611e4f906078613516565b611e5991906134f0565b5f848152600c60205260409020555b600a54604051637a94c56560e11b815233600482015260248101849052600160448201526001600160a01b039091169063f5298aca906064015f604051808303815f87803b158015611eb8575f5ffd5b505af1158015611eca573d5f5f3e3d5ffd5b50505050505050565b33611edd82611199565b6001600160a01b031614611f035760405162461bcd60e51b8152600401610cdb9061356c565b5f818152600b6020526040902060050154600314611f565760405162461bcd60e51b815260206004820152601060248201526f506c616e74206e6f74206d617475726560801b6044820152606401610cdb565b6009546001600160a01b0316611fa45760405162461bcd60e51b815260206004820152601360248201527211d85c99195b951bdad95b881b9bdd081cd95d606a1b6044820152606401610cdb565b5f818152600f6020526040902054611fc0906201518090613503565b42101561200f5760405162461bcd60e51b815260206004820152601f60248201527f4861727665737420636f6f6c646f776e206163746976652028312064617929006044820152606401610cdb565b5f818152600b60205260408082208151610100810190925280548290829061203690613490565b80601f016020809104026020016040519081016040528092919081815260200182805461206290613490565b80156120ad5780601f10612084576101008083540402835291602001916120ad565b820191905f5260205f20905b81548152906001019060200180831161209057829003601f168201915b505050505081526020016001820180546120c690613490565b80601f01602080910402602001604051908101604052809291908181526020018280546120f290613490565b801561213d5780601f106121145761010080835404028352916020019161213d565b820191905f5260205f20905b81548152906001019060200180831161212057829003601f168201915b505050918352505060028201546020820152600382015460ff9081166040830152600483015460608084019190915260058401546080840152600684015460a084015260079093015416151560c0909101528101519091505f906121a090612bf6565b5f848152600f6020526040908190204290556009549051634d24848760e11b8152336004820152602481018390529192506001600160a01b031690639a49090e906044015f604051808303815f87803b1580156121fb575f5ffd5b505af115801561220d573d5f5f3e3d5ffd5b50506040518381523392508591507f79f2138ea100070ff95b59c265da7aa3c7a0f61595fe1bb2f5fda2762f398847906020015b60405180910390a3505050565b6001600160a01b039182165f90815260056020908152604080832093909416825291909152205460ff1690565b6122c260405180610100016040528060608152602001606081526020015f81526020015f60ff1681526020015f81526020015f81526020015f81526020015f151581525090565b5f6122cc83611199565b6001600160a01b0316036123185760405162461bcd60e51b8152602060048201526013602482015272151bdad95b88191bd95cdb89dd08195e1a5cdd606a1b6044820152606401610cdb565b5f828152600b6020526040908190208151610100810190925280548290829061234090613490565b80601f016020809104026020016040519081016040528092919081815260200182805461236c90613490565b80156123b75780601f1061238e576101008083540402835291602001916123b7565b820191905f5260205f20905b81548152906001019060200180831161239a57829003601f168201915b505050505081526020016001820180546123d090613490565b80601f01602080910402602001604051908101604052809291908181526020018280546123fc90613490565b80156124475780601f1061241e57610100808354040283529160200191612447565b820191905f5260205f20905b81548152906001019060200180831161242a57829003601f168201915b505050918352505060028201546020820152600382015460ff90811660408301526004830154606083015260058301546080830152600683015460a0830152600790920154909116151560c09091015292915050565b336124a782611199565b6001600160a01b0316146124cd5760405162461bcd60e51b8152600401610cdb9061356c565b6124d681610982565b6125225760405162461bcd60e51b815260206004820152601b60248201527f47726f77746820726571756972656d656e7473206e6f74206d657400000000006044820152606401610cdb565b61252b8161293b565b50565b61253661285c565b6001600160a01b03811661255f57604051631e4fbdf760e01b81525f6004820152602401610cdb565b61252b816128ea565b5f818152600b6020526040808220815161010081019092528054839291908290829061259390613490565b80601f01602080910402602001604051908101604052809291908181526020018280546125bf90613490565b801561260a5780601f106125e15761010080835404028352916020019161260a565b820191905f5260205f20905b8154815290600101906020018083116125ed57829003601f168201915b5050505050815260200160018201805461262390613490565b80601f016020809104026020016040519081016040528092919081815260200182805461264f90613490565b801561269a5780601f106126715761010080835404028352916020019161269a565b820191905f5260205f20905b81548152906001019060200180831161267d57829003601f168201915b50505091835250506002820154602082015260038083015460ff90811660408401526004840154606084015260058401546080840152600684015460a08085019190915260079094015416151560c09092019190915290820151919250148015610bf057505f838152600f602052604090205461271b906201518090613503565b4210159392505050565b5f818152600260205260408120546001600160a01b0316806108b757604051637e27328960e01b815260048101849052602401610cdb565b610fb88383836001612d12565b5f828152600260205260408120546001600160a01b039081169083161561279657612796818486612e16565b6001600160a01b038116156127d0576127b15f855f5f612d12565b6001600160a01b0381165f90815260036020526040902080545f190190555b6001600160a01b038516156127fe576001600160a01b0385165f908152600360205260409020805460010190555b5f8481526002602052604080822080546001600160a01b0319166001600160a01b0389811691821790925591518793918516917fddf252ad1be2c89b69c2b068fc378daa952ba7f163c4a11628f55a4df523b3ef91a4949350505050565b6006546001600160a01b031633146111f95760405163118cdaa760e01b8152336004820152602401610cdb565b6001600160a01b0382166128b257604051633250574960e11b81525f6004820152602401610cdb565b5f6128be83835f61276a565b90506001600160a01b03811615610fb8576040516339e3563760e11b81525f6004820152602401610cdb565b600680546001600160a01b038381166001600160a01b0319831681179093556040519116919082907f8be0079c531659141344cd1fd0a4f28419497f9722a3daafe3b4186f6b6457e0905f90a35050565b5f818152600b60205260408120600581018054919261295983613554565b90915550505f828152600e6020526040908190204290556005820154905183917feda999db4143ec0cc5da5aa8705b4fb76e9ba915cd97e92040de3da09260771391610f4291815260200190565b6001600160a01b0382166129d957604051630b61174360e31b81526001600160a01b0383166004820152602401610cdb565b6001600160a01b038381165f81815260056020908152604080832094871680845294825291829020805460ff191686151590811790915591519182527f17307eab39ab6107e8899845ad3d59bd9653f200f220920489ca2b5937696c319101612241565b6001600160a01b0383163b15612b5e57604051630a85bd0160e11b81526001600160a01b0384169063150b7a0290612a7f90889088908790879060040161374b565b6020604051808303815f875af1925050508015612ab9575060408051601f3d908101601f19168201909252612ab691810190613787565b60015b612b20573d808015612ae6576040519150601f19603f3d011682016040523d82523d5f602084013e612aeb565b606091505b5080515f03612b1857604051633250574960e11b81526001600160a01b0385166004820152602401610cdb565b805160208201fd5b6001600160e01b03198116630a85bd0160e11b14612b5c57604051633250574960e11b81526001600160a01b0385166004820152602401610cdb565b505b5050505050565b60605f612b7183612e7a565b60010190505f8167ffffffffffffffff811115612b9057612b90613131565b6040519080825280601f01601f191660200182016040528015612bba576020820181803683370190505b5090508181016020015b5f19016f181899199a1a9b1b9c1cb0b131b232b360811b600a86061a8153600a8504945084612bc4575b509392505050565b5f678ac7230489e800008160ff8416600103612c1457506001612c64565b8360ff16600203612c2757506002612c64565b8360ff16600303612c3a57506003612c64565b8360ff16600403612c4d57506005612c64565b8360ff16600503612c605750600a612c64565b5060015b611b738183613516565b604080514260208201526bffffffffffffffffffffffff193360601b16918101919091524460548201525f908190606490607401604051602081830303815290604052805190602001205f1c612cc491906137a2565b9050603c811015612cd757600191505090565b6055811015612ce857600291505090565b605f811015612cf957600391505090565b6063811015612d0a57600491505090565b600591505090565b8080612d2657506001600160a01b03821615155b15612de7575f612d3584612725565b90506001600160a01b03831615801590612d615750826001600160a01b0316816001600160a01b031614155b8015612d745750612d72818461224e565b155b15612d9d5760405163a9fbf51f60e01b81526001600160a01b0384166004820152602401610cdb565b8115612de55783856001600160a01b0316826001600160a01b03167f8c5be1e5ebec7d5bd14f71427d1e84f3dd0314c0f7b2291e5b200ac8c7c3b92560405160405180910390a45b505b50505f90815260046020526040902080546001600160a01b0319166001600160a01b0392909216919091179055565b612e21838383612f51565b610fb8576001600160a01b038316612e4f57604051637e27328960e01b815260048101829052602401610cdb565b60405163177e802f60e01b81526001600160a01b038316600482015260248101829052604401610cdb565b5f8072184f03e93ff9f4daa797ed6e38ed64bf6a1f0160401b8310612eb85772184f03e93ff9f4daa797ed6e38ed64bf6a1f0160401b830492506040015b6d04ee2d6d415b85acef81000000008310612ee4576d04ee2d6d415b85acef8100000000830492506020015b662386f26fc100008310612f0257662386f26fc10000830492506010015b6305f5e1008310612f1a576305f5e100830492506008015b6127108310612f2e57612710830492506004015b60648310612f40576064830492506002015b600a83106108b75760010192915050565b5f6001600160a01b03831615801590611b735750826001600160a01b0316846001600160a01b03161480612f8a5750612f8a848461224e565b80611b735750505f908152600460205260409020546001600160a01b03908116911614919050565b6001600160e01b03198116811461252b575f5ffd5b5f60208284031215612fd7575f5ffd5b8135610bf081612fb2565b5f81518084528060208401602086015e5f602082860101526020601f19601f83011685010191505092915050565b602081525f610bf06020830184612fe2565b5f60208284031215613032575f5ffd5b5035919050565b80356001600160a01b038116811461304f575f5ffd5b919050565b5f5f60408385031215613065575f5ffd5b61306e83613039565b946020939093013593505050565b5f6020828403121561308c575f5ffd5b610bf082613039565b602080825282518282018190525f918401906040840190835b818110156130cc5783518352602093840193909201916001016130ae565b509095945050505050565b5f5f5f606084860312156130e9575f5ffd5b6130f284613039565b925061310060208501613039565b929592945050506040919091013590565b5f5f60408385031215613122575f5ffd5b50508035926020909101359150565b634e487b7160e01b5f52604160045260245ffd5b5f5f67ffffffffffffffff84111561315f5761315f613131565b50604051601f19601f85018116603f0116810181811067ffffffffffffffff8211171561318e5761318e613131565b6040528381529050808284018510156131a5575f5ffd5b838360208301375f60208583010152509392505050565b5f82601f8301126131cb575f5ffd5b610bf083833560208501613145565b5f5f5f5f608085870312156131ed575f5ffd5b6131f685613039565b9350602085013567ffffffffffffffff811115613211575f5ffd5b61321d878288016131bc565b935050604085013567ffffffffffffffff811115613239575f5ffd5b613245878288016131bc565b925050606085013560ff8116811461325b575f5ffd5b939692955090935050565b61010081525f61327a61010083018b612fe2565b828103602084015261328c818b612fe2565b6040840199909952505060ff959095166060860152608085019390935260a084019190915260c0830152151560e09091015292915050565b5f5f604083850312156132d5575f5ffd5b6132de83613039565b9150602083013580151581146132f2575f5ffd5b809150509250929050565b5f5f5f5f60808587031215613310575f5ffd5b61331985613039565b935061332760208601613039565b925060408501359150606085013567ffffffffffffffff811115613349575f5ffd5b8501601f81018713613359575f5ffd5b61336887823560208401613145565b91505092959194509250565b5f5f60408385031215613385575f5ffd5b823567ffffffffffffffff81111561339b575f5ffd5b6133a7858286016131bc565b925050602083013567ffffffffffffffff8111156133c3575f5ffd5b6133cf858286016131bc565b9150509250929050565b5f5f604083850312156133ea575f5ffd5b6133f383613039565b915061340160208401613039565b90509250929050565b602081525f82516101006020840152613427610120840182612fe2565b90506020840151601f198483030160408501526134448282612fe2565b9150506040840151606084015260ff6060850151166080840152608084015160a084015260a084015160c084015260c084015160e084015260e0840151612bee61010085018215159052565b600181811c908216806134a457607f821691505b6020821081036134c257634e487b7160e01b5f52602260045260245ffd5b50919050565b634e487b7160e01b5f52601260045260245ffd5b634e487b7160e01b5f52601160045260245ffd5b5f826134fe576134fe6134c8565b500490565b808201808211156108b7576108b76134dc565b80820281158282048414176108b7576108b76134dc565b818103818111156108b7576108b76134dc565b634e487b7160e01b5f52603260045260245ffd5b5f60018201613565576135656134dc565b5060010190565b6020808252600990820152682737ba1037bbb732b960b91b604082015260600190565b5f6020828403121561359f575f5ffd5b5051919050565b602080825260149082015273506c616e7420616c7265616479206d617475726560601b604082015260600190565b6020808252600f908201526e496e76616c6964206164647265737360881b604082015260600190565b601f821115610fb857805f5260205f20601f840160051c810160208510156136225750805b601f840160051c820191505b81811015612b5e575f815560010161362e565b815167ffffffffffffffff81111561365b5761365b613131565b61366f816136698454613490565b846135fd565b6020601f8211600181146136a1575f831561368a5750848201515b5f19600385901b1c1916600184901b178455612b5e565b5f84815260208120601f198516915b828110156136d057878501518255602094850194600190920191016136b0565b50848210156136ed57868401515f19600387901b60f8161c191681555b50505050600190811b01905550565b604081525f61370e6040830185612fe2565b905060ff831660208301529392505050565b5f81518060208401855e5f93019283525090919050565b5f611b736137458386613720565b84613720565b6001600160a01b03858116825284166020820152604081018390526080606082018190525f9061377d90830184612fe2565b9695505050505050565b5f60208284031215613797575f5ffd5b8151610bf081612fb2565b5f826137b0576137b06134c8565b50069056fea264697066735822122055fc674aa7aa43013228f980a36762dc2d537cd3cfeb5fd5cad6646f7bef943f64736f6c634300081e0033",
  "linkReferences": {},
  "deployedLinkReferences": {},
  "immutableReferences": {},
  "inputSourceName": "project/contracts/PlantNFT.sol",
  "buildInfoId": "solc-0_8_30-d2f6cb8f3038c748d17d63d8ff82c99f50bf673f"
}